{
	"contracts/SimpleStorage.sol": {
		"SimpleStorage": {
			"abi": [
				{
					"stateMutability": "nonpayable",
					"type": "fallback"
				},
				{
					"inputs": [
						{
							"internalType": "uint256",
							"name": "_favoriteNumber",
							"type": "uint256"
						},
						{
							"internalType": "string",
							"name": "_name",
							"type": "string"
						},
						{
							"internalType": "uint256",
							"name": "_age",
							"type": "uint256"
						}
					],
					"name": "addPerson",
					"outputs": [],
					"stateMutability": "nonpayable",
					"type": "function"
				},
				{
					"inputs": [],
					"name": "favouriteNumber",
					"outputs": [
						{
							"internalType": "uint256",
							"name": "",
							"type": "uint256"
						}
					],
					"stateMutability": "view",
					"type": "function"
				},
				{
					"inputs": [
						{
							"internalType": "string",
							"name": "",
							"type": "string"
						}
					],
					"name": "nameToFavoriteNumber",
					"outputs": [
						{
							"internalType": "uint256",
							"name": "",
							"type": "uint256"
						}
					],
					"stateMutability": "view",
					"type": "function"
				},
				{
					"inputs": [
						{
							"internalType": "uint256",
							"name": "",
							"type": "uint256"
						}
					],
					"name": "people",
					"outputs": [
						{
							"internalType": "uint256",
							"name": "favoriteNumber",
							"type": "uint256"
						},
						{
							"internalType": "string",
							"name": "name",
							"type": "string"
						},
						{
							"internalType": "uint256",
							"name": "age",
							"type": "uint256"
						}
					],
					"stateMutability": "view",
					"type": "function"
				},
				{
					"inputs": [],
					"name": "retreive",
					"outputs": [
						{
							"internalType": "uint256",
							"name": "",
							"type": "uint256"
						}
					],
					"stateMutability": "view",
					"type": "function"
				},
				{
					"inputs": [
						{
							"internalType": "uint256",
							"name": "_favoriteNumber",
							"type": "uint256"
						}
					],
					"name": "store",
					"outputs": [],
					"stateMutability": "nonpayable",
					"type": "function"
				}
			],
			"devdoc": {
				"kind": "dev",
				"methods": {},
				"version": 1
			},
			"evm": {
				"assembly": "    /* \"contracts/SimpleStorage.sol\":62:879  contract SimpleStorage {... */\n  mstore(0x40, 0x80)\n  callvalue\n  dup1\n  iszero\n  tag_1\n  jumpi\n  0x00\n  dup1\n  revert\ntag_1:\n  pop\n  dataSize(sub_0)\n  dup1\n  dataOffset(sub_0)\n  0x00\n  codecopy\n  0x00\n  return\nstop\n\nsub_0: assembly {\n        /* \"contracts/SimpleStorage.sol\":62:879  contract SimpleStorage {... */\n      mstore(0x40, 0x80)\n      callvalue\n      dup1\n      iszero\n      tag_1\n      jumpi\n      0x00\n      dup1\n      revert\n    tag_1:\n      pop\n      jumpi(tag_2, lt(calldatasize, 0x04))\n      shr(0xe0, calldataload(0x00))\n      dup1\n      0x3df9b366\n      eq\n      tag_4\n      jumpi\n      dup1\n      0x43ede4ae\n      eq\n      tag_5\n      jumpi\n      dup1\n      0x6057361d\n      eq\n      tag_6\n      jumpi\n      dup1\n      0x8bab8dd5\n      eq\n      tag_7\n      jumpi\n      dup1\n      0x9e7a13ad\n      eq\n      tag_8\n      jumpi\n      dup1\n      0xb05784b8\n      eq\n      tag_9\n      jumpi\n      jump(tag_3)\n    tag_2:\n    tag_3:\n        /* \"contracts/SimpleStorage.sol\":794:866  revert(\"Fallback function called. This contract does not accept Ether.\") */\n      mload(0x40)\n      0x08c379a000000000000000000000000000000000000000000000000000000000\n      dup2\n      mstore\n      0x04\n      add\n      tag_12\n      swap1\n      tag_13\n      jump\t// in\n    tag_12:\n      mload(0x40)\n      dup1\n      swap2\n      sub\n      swap1\n      revert\n        /* \"contracts/SimpleStorage.sol\":545:755  function addPerson (uint256 _favoriteNumber, string memory _name, uint256 _age) public {... */\n    tag_4:\n      tag_14\n      0x04\n      dup1\n      calldatasize\n      sub\n      dup2\n      add\n      swap1\n      tag_15\n      swap2\n      swap1\n      tag_16\n      jump\t// in\n    tag_15:\n      tag_17\n      jump\t// in\n    tag_14:\n      stop\n        /* \"contracts/SimpleStorage.sol\":94:124  uint256 public favouriteNumber */\n    tag_5:\n      tag_18\n      tag_19\n      jump\t// in\n    tag_18:\n      mload(0x40)\n      tag_20\n      swap2\n      swap1\n      tag_21\n      jump\t// in\n    tag_20:\n      mload(0x40)\n      dup1\n      swap2\n      sub\n      swap1\n      return\n        /* \"contracts/SimpleStorage.sol\":337:437  function store (uint256 _favoriteNumber) public {... */\n    tag_6:\n      tag_22\n      0x04\n      dup1\n      calldatasize\n      sub\n      dup2\n      add\n      swap1\n      tag_23\n      swap2\n      swap1\n      tag_24\n      jump\t// in\n    tag_23:\n      tag_25\n      jump\t// in\n    tag_22:\n      stop\n        /* \"contracts/SimpleStorage.sol\":269:324  mapping (string => uint256) public nameToFavoriteNumber */\n    tag_7:\n      tag_26\n      0x04\n      dup1\n      calldatasize\n      sub\n      dup2\n      add\n      swap1\n      tag_27\n      swap2\n      swap1\n      tag_28\n      jump\t// in\n    tag_27:\n      tag_29\n      jump\t// in\n    tag_26:\n      mload(0x40)\n      tag_30\n      swap2\n      swap1\n      tag_21\n      jump\t// in\n    tag_30:\n      mload(0x40)\n      dup1\n      swap2\n      sub\n      swap1\n      return\n        /* \"contracts/SimpleStorage.sol\":240:262  People[] public people */\n    tag_8:\n      tag_31\n      0x04\n      dup1\n      calldatasize\n      sub\n      dup2\n      add\n      swap1\n      tag_32\n      swap2\n      swap1\n      tag_24\n      jump\t// in\n    tag_32:\n      tag_33\n      jump\t// in\n    tag_31:\n      mload(0x40)\n      tag_34\n      swap4\n      swap3\n      swap2\n      swap1\n      tag_35\n      jump\t// in\n    tag_34:\n      mload(0x40)\n      dup1\n      swap2\n      sub\n      swap1\n      return\n        /* \"contracts/SimpleStorage.sol\":445:537  function retreive () public view returns (uint256) {... */\n    tag_9:\n      tag_36\n      tag_37\n      jump\t// in\n    tag_36:\n      mload(0x40)\n      tag_38\n      swap2\n      swap1\n      tag_21\n      jump\t// in\n    tag_38:\n      mload(0x40)\n      dup1\n      swap2\n      sub\n      swap1\n      return\n        /* \"contracts/SimpleStorage.sol\":545:755  function addPerson (uint256 _favoriteNumber, string memory _name, uint256 _age) public {... */\n    tag_17:\n        /* \"contracts/SimpleStorage.sol\":643:649  people */\n      0x01\n        /* \"contracts/SimpleStorage.sol\":655:690  People(_favoriteNumber,_name, _age) */\n      mload(0x40)\n      dup1\n      0x60\n      add\n      0x40\n      mstore\n      dup1\n        /* \"contracts/SimpleStorage.sol\":662:677  _favoriteNumber */\n      dup6\n        /* \"contracts/SimpleStorage.sol\":655:690  People(_favoriteNumber,_name, _age) */\n      dup2\n      mstore\n      0x20\n      add\n        /* \"contracts/SimpleStorage.sol\":678:683  _name */\n      dup5\n        /* \"contracts/SimpleStorage.sol\":655:690  People(_favoriteNumber,_name, _age) */\n      dup2\n      mstore\n      0x20\n      add\n        /* \"contracts/SimpleStorage.sol\":685:689  _age */\n      dup4\n        /* \"contracts/SimpleStorage.sol\":655:690  People(_favoriteNumber,_name, _age) */\n      dup2\n      mstore\n      pop\n        /* \"contracts/SimpleStorage.sol\":643:691  people.push(People(_favoriteNumber,_name, _age)) */\n      swap1\n      dup1\n      0x01\n      dup2\n      sload\n      add\n      dup1\n      dup3\n      sstore\n      dup1\n      swap2\n      pop\n      pop\n      0x01\n      swap1\n      sub\n      swap1\n      0x00\n      mstore\n      keccak256(0x00, 0x20)\n      swap1\n      0x03\n      mul\n      add\n      0x00\n      swap1\n      swap2\n      swap1\n      swap2\n      swap1\n      swap2\n      pop\n      0x00\n      dup3\n      add\n      mload\n      dup2\n      0x00\n      add\n      sstore\n      0x20\n      dup3\n      add\n      mload\n      dup2\n      0x01\n      add\n      swap1\n      dup2\n      tag_41\n      swap2\n      swap1\n      tag_42\n      jump\t// in\n    tag_41:\n      pop\n      0x40\n      dup3\n      add\n      mload\n      dup2\n      0x02\n      add\n      sstore\n      pop\n      pop\n        /* \"contracts/SimpleStorage.sol\":732:747  _favoriteNumber */\n      dup3\n        /* \"contracts/SimpleStorage.sol\":702:722  nameToFavoriteNumber */\n      0x02\n        /* \"contracts/SimpleStorage.sol\":723:728  _name */\n      dup4\n        /* \"contracts/SimpleStorage.sol\":702:729  nameToFavoriteNumber[_name] */\n      mload(0x40)\n      tag_43\n      swap2\n      swap1\n      tag_44\n      jump\t// in\n    tag_43:\n      swap1\n      dup2\n      mstore\n      0x20\n      add\n      mload(0x40)\n      dup1\n      swap2\n      sub\n      swap1\n      keccak256\n        /* \"contracts/SimpleStorage.sol\":702:747  nameToFavoriteNumber[_name] = _favoriteNumber */\n      dup2\n      swap1\n      sstore\n      pop\n        /* \"contracts/SimpleStorage.sol\":545:755  function addPerson (uint256 _favoriteNumber, string memory _name, uint256 _age) public {... */\n      pop\n      pop\n      pop\n      jump\t// out\n        /* \"contracts/SimpleStorage.sol\":94:124  uint256 public favouriteNumber */\n    tag_19:\n      sload(0x00)\n      dup2\n      jump\t// out\n        /* \"contracts/SimpleStorage.sol\":337:437  function store (uint256 _favoriteNumber) public {... */\n    tag_25:\n        /* \"contracts/SimpleStorage.sol\":414:429  _favoriteNumber */\n      dup1\n        /* \"contracts/SimpleStorage.sol\":396:411  favouriteNumber */\n      0x00\n        /* \"contracts/SimpleStorage.sol\":396:429  favouriteNumber = _favoriteNumber */\n      dup2\n      swap1\n      sstore\n      pop\n        /* \"contracts/SimpleStorage.sol\":337:437  function store (uint256 _favoriteNumber) public {... */\n      pop\n      jump\t// out\n        /* \"contracts/SimpleStorage.sol\":269:324  mapping (string => uint256) public nameToFavoriteNumber */\n    tag_29:\n      0x02\n      dup2\n      dup1\n      mload\n      0x20\n      dup2\n      add\n      dup3\n      add\n      dup1\n      mload\n      dup5\n      dup3\n      mstore\n      0x20\n      dup4\n      add\n      0x20\n      dup6\n      add\n      keccak256\n      dup2\n      dup4\n      mstore\n      dup1\n      swap6\n      pop\n      pop\n      pop\n      pop\n      pop\n      pop\n      0x00\n      swap2\n      pop\n      swap1\n      pop\n      sload\n      dup2\n      jump\t// out\n        /* \"contracts/SimpleStorage.sol\":240:262  People[] public people */\n    tag_33:\n      0x01\n      dup2\n      dup2\n      sload\n      dup2\n      lt\n      tag_46\n      jumpi\n      0x00\n      dup1\n      revert\n    tag_46:\n      swap1\n      0x00\n      mstore\n      keccak256(0x00, 0x20)\n      swap1\n      0x03\n      mul\n      add\n      0x00\n      swap2\n      pop\n      swap1\n      pop\n      dup1\n      0x00\n      add\n      sload\n      swap1\n      dup1\n      0x01\n      add\n      dup1\n      sload\n      tag_48\n      swap1\n      tag_49\n      jump\t// in\n    tag_48:\n      dup1\n      0x1f\n      add\n      0x20\n      dup1\n      swap2\n      div\n      mul\n      0x20\n      add\n      mload(0x40)\n      swap1\n      dup2\n      add\n      0x40\n      mstore\n      dup1\n      swap3\n      swap2\n      swap1\n      dup2\n      dup2\n      mstore\n      0x20\n      add\n      dup3\n      dup1\n      sload\n      tag_50\n      swap1\n      tag_49\n      jump\t// in\n    tag_50:\n      dup1\n      iszero\n      tag_51\n      jumpi\n      dup1\n      0x1f\n      lt\n      tag_52\n      jumpi\n      0x0100\n      dup1\n      dup4\n      sload\n      div\n      mul\n      dup4\n      mstore\n      swap2\n      0x20\n      add\n      swap2\n      jump(tag_51)\n    tag_52:\n      dup3\n      add\n      swap2\n      swap1\n      0x00\n      mstore\n      keccak256(0x00, 0x20)\n      swap1\n    tag_53:\n      dup2\n      sload\n      dup2\n      mstore\n      swap1\n      0x01\n      add\n      swap1\n      0x20\n      add\n      dup1\n      dup4\n      gt\n      tag_53\n      jumpi\n      dup3\n      swap1\n      sub\n      0x1f\n      and\n      dup3\n      add\n      swap2\n    tag_51:\n      pop\n      pop\n      pop\n      pop\n      pop\n      swap1\n      dup1\n      0x02\n      add\n      sload\n      swap1\n      pop\n      dup4\n      jump\t// out\n        /* \"contracts/SimpleStorage.sol\":445:537  function retreive () public view returns (uint256) {... */\n    tag_37:\n        /* \"contracts/SimpleStorage.sol\":487:494  uint256 */\n      0x00\n        /* \"contracts/SimpleStorage.sol\":514:529  favouriteNumber */\n      dup1\n      sload\n        /* \"contracts/SimpleStorage.sol\":507:529  return favouriteNumber */\n      swap1\n      pop\n        /* \"contracts/SimpleStorage.sol\":445:537  function retreive () public view returns (uint256) {... */\n      swap1\n      jump\t// out\n        /* \"#utility.yul\":7:176   */\n    tag_55:\n        /* \"#utility.yul\":91:102   */\n      0x00\n        /* \"#utility.yul\":125:131   */\n      dup3\n        /* \"#utility.yul\":120:123   */\n      dup3\n        /* \"#utility.yul\":113:132   */\n      mstore\n        /* \"#utility.yul\":165:169   */\n      0x20\n        /* \"#utility.yul\":160:163   */\n      dup3\n        /* \"#utility.yul\":156:170   */\n      add\n        /* \"#utility.yul\":141:170   */\n      swap1\n      pop\n        /* \"#utility.yul\":7:176   */\n      swap3\n      swap2\n      pop\n      pop\n      jump\t// out\n        /* \"#utility.yul\":182:431   */\n    tag_56:\n        /* \"#utility.yul\":322:356   */\n      0x46616c6c6261636b2066756e6374696f6e2063616c6c65642e20546869732063\n        /* \"#utility.yul\":318:319   */\n      0x00\n        /* \"#utility.yul\":310:316   */\n      dup3\n        /* \"#utility.yul\":306:320   */\n      add\n        /* \"#utility.yul\":299:357   */\n      mstore\n        /* \"#utility.yul\":391:423   */\n      0x6f6e747261637420646f6573206e6f74206163636570742045746865722e0000\n        /* \"#utility.yul\":386:388   */\n      0x20\n        /* \"#utility.yul\":378:384   */\n      dup3\n        /* \"#utility.yul\":374:389   */\n      add\n        /* \"#utility.yul\":367:424   */\n      mstore\n        /* \"#utility.yul\":182:431   */\n      pop\n      jump\t// out\n        /* \"#utility.yul\":437:803   */\n    tag_57:\n        /* \"#utility.yul\":579:582   */\n      0x00\n        /* \"#utility.yul\":600:667   */\n      tag_100\n        /* \"#utility.yul\":664:666   */\n      0x3e\n        /* \"#utility.yul\":659:662   */\n      dup4\n        /* \"#utility.yul\":600:667   */\n      tag_55\n      jump\t// in\n    tag_100:\n        /* \"#utility.yul\":593:667   */\n      swap2\n      pop\n        /* \"#utility.yul\":676:769   */\n      tag_101\n        /* \"#utility.yul\":765:768   */\n      dup3\n        /* \"#utility.yul\":676:769   */\n      tag_56\n      jump\t// in\n    tag_101:\n        /* \"#utility.yul\":794:796   */\n      0x40\n        /* \"#utility.yul\":789:792   */\n      dup3\n        /* \"#utility.yul\":785:797   */\n      add\n        /* \"#utility.yul\":778:797   */\n      swap1\n      pop\n        /* \"#utility.yul\":437:803   */\n      swap2\n      swap1\n      pop\n      jump\t// out\n        /* \"#utility.yul\":809:1228   */\n    tag_13:\n        /* \"#utility.yul\":975:979   */\n      0x00\n        /* \"#utility.yul\":1013:1015   */\n      0x20\n        /* \"#utility.yul\":1002:1011   */\n      dup3\n        /* \"#utility.yul\":998:1016   */\n      add\n        /* \"#utility.yul\":990:1016   */\n      swap1\n      pop\n        /* \"#utility.yul\":1062:1071   */\n      dup2\n        /* \"#utility.yul\":1056:1060   */\n      dup2\n        /* \"#utility.yul\":1052:1072   */\n      sub\n        /* \"#utility.yul\":1048:1049   */\n      0x00\n        /* \"#utility.yul\":1037:1046   */\n      dup4\n        /* \"#utility.yul\":1033:1050   */\n      add\n        /* \"#utility.yul\":1026:1073   */\n      mstore\n        /* \"#utility.yul\":1090:1221   */\n      tag_103\n        /* \"#utility.yul\":1216:1220   */\n      dup2\n        /* \"#utility.yul\":1090:1221   */\n      tag_57\n      jump\t// in\n    tag_103:\n        /* \"#utility.yul\":1082:1221   */\n      swap1\n      pop\n        /* \"#utility.yul\":809:1228   */\n      swap2\n      swap1\n      pop\n      jump\t// out\n        /* \"#utility.yul\":1234:1309   */\n    tag_58:\n        /* \"#utility.yul\":1267:1273   */\n      0x00\n        /* \"#utility.yul\":1300:1302   */\n      0x40\n        /* \"#utility.yul\":1294:1303   */\n      mload\n        /* \"#utility.yul\":1284:1303   */\n      swap1\n      pop\n        /* \"#utility.yul\":1234:1309   */\n      swap1\n      jump\t// out\n        /* \"#utility.yul\":1315:1432   */\n    tag_59:\n        /* \"#utility.yul\":1424:1425   */\n      0x00\n        /* \"#utility.yul\":1421:1422   */\n      dup1\n        /* \"#utility.yul\":1414:1426   */\n      revert\n        /* \"#utility.yul\":1438:1555   */\n    tag_60:\n        /* \"#utility.yul\":1547:1548   */\n      0x00\n        /* \"#utility.yul\":1544:1545   */\n      dup1\n        /* \"#utility.yul\":1537:1549   */\n      revert\n        /* \"#utility.yul\":1561:1638   */\n    tag_61:\n        /* \"#utility.yul\":1598:1605   */\n      0x00\n        /* \"#utility.yul\":1627:1632   */\n      dup2\n        /* \"#utility.yul\":1616:1632   */\n      swap1\n      pop\n        /* \"#utility.yul\":1561:1638   */\n      swap2\n      swap1\n      pop\n      jump\t// out\n        /* \"#utility.yul\":1644:1766   */\n    tag_62:\n        /* \"#utility.yul\":1717:1741   */\n      tag_109\n        /* \"#utility.yul\":1735:1740   */\n      dup2\n        /* \"#utility.yul\":1717:1741   */\n      tag_61\n      jump\t// in\n    tag_109:\n        /* \"#utility.yul\":1710:1715   */\n      dup2\n        /* \"#utility.yul\":1707:1742   */\n      eq\n        /* \"#utility.yul\":1697:1760   */\n      tag_110\n      jumpi\n        /* \"#utility.yul\":1756:1757   */\n      0x00\n        /* \"#utility.yul\":1753:1754   */\n      dup1\n        /* \"#utility.yul\":1746:1758   */\n      revert\n        /* \"#utility.yul\":1697:1760   */\n    tag_110:\n        /* \"#utility.yul\":1644:1766   */\n      pop\n      jump\t// out\n        /* \"#utility.yul\":1772:1911   */\n    tag_63:\n        /* \"#utility.yul\":1818:1823   */\n      0x00\n        /* \"#utility.yul\":1856:1862   */\n      dup2\n        /* \"#utility.yul\":1843:1863   */\n      calldataload\n        /* \"#utility.yul\":1834:1863   */\n      swap1\n      pop\n        /* \"#utility.yul\":1872:1905   */\n      tag_112\n        /* \"#utility.yul\":1899:1904   */\n      dup2\n        /* \"#utility.yul\":1872:1905   */\n      tag_62\n      jump\t// in\n    tag_112:\n        /* \"#utility.yul\":1772:1911   */\n      swap3\n      swap2\n      pop\n      pop\n      jump\t// out\n        /* \"#utility.yul\":1917:2034   */\n    tag_64:\n        /* \"#utility.yul\":2026:2027   */\n      0x00\n        /* \"#utility.yul\":2023:2024   */\n      dup1\n        /* \"#utility.yul\":2016:2028   */\n      revert\n        /* \"#utility.yul\":2040:2157   */\n    tag_65:\n        /* \"#utility.yul\":2149:2150   */\n      0x00\n        /* \"#utility.yul\":2146:2147   */\n      dup1\n        /* \"#utility.yul\":2139:2151   */\n      revert\n        /* \"#utility.yul\":2163:2265   */\n    tag_66:\n        /* \"#utility.yul\":2204:2210   */\n      0x00\n        /* \"#utility.yul\":2255:2257   */\n      0x1f\n        /* \"#utility.yul\":2251:2258   */\n      not\n        /* \"#utility.yul\":2246:2248   */\n      0x1f\n        /* \"#utility.yul\":2239:2244   */\n      dup4\n        /* \"#utility.yul\":2235:2249   */\n      add\n        /* \"#utility.yul\":2231:2259   */\n      and\n        /* \"#utility.yul\":2221:2259   */\n      swap1\n      pop\n        /* \"#utility.yul\":2163:2265   */\n      swap2\n      swap1\n      pop\n      jump\t// out\n        /* \"#utility.yul\":2271:2451   */\n    tag_67:\n        /* \"#utility.yul\":2319:2396   */\n      0x4e487b7100000000000000000000000000000000000000000000000000000000\n        /* \"#utility.yul\":2316:2317   */\n      0x00\n        /* \"#utility.yul\":2309:2397   */\n      mstore\n        /* \"#utility.yul\":2416:2420   */\n      0x41\n        /* \"#utility.yul\":2413:2414   */\n      0x04\n        /* \"#utility.yul\":2406:2421   */\n      mstore\n        /* \"#utility.yul\":2440:2444   */\n      0x24\n        /* \"#utility.yul\":2437:2438   */\n      0x00\n        /* \"#utility.yul\":2430:2445   */\n      revert\n        /* \"#utility.yul\":2457:2738   */\n    tag_68:\n        /* \"#utility.yul\":2540:2567   */\n      tag_118\n        /* \"#utility.yul\":2562:2566   */\n      dup3\n        /* \"#utility.yul\":2540:2567   */\n      tag_66\n      jump\t// in\n    tag_118:\n        /* \"#utility.yul\":2532:2538   */\n      dup2\n        /* \"#utility.yul\":2528:2568   */\n      add\n        /* \"#utility.yul\":2670:2676   */\n      dup2\n        /* \"#utility.yul\":2658:2668   */\n      dup2\n        /* \"#utility.yul\":2655:2677   */\n      lt\n        /* \"#utility.yul\":2634:2652   */\n      0xffffffffffffffff\n        /* \"#utility.yul\":2622:2632   */\n      dup3\n        /* \"#utility.yul\":2619:2653   */\n      gt\n        /* \"#utility.yul\":2616:2678   */\n      or\n        /* \"#utility.yul\":2613:2701   */\n      iszero\n      tag_119\n      jumpi\n        /* \"#utility.yul\":2681:2699   */\n      tag_120\n      tag_67\n      jump\t// in\n    tag_120:\n        /* \"#utility.yul\":2613:2701   */\n    tag_119:\n        /* \"#utility.yul\":2721:2731   */\n      dup1\n        /* \"#utility.yul\":2717:2719   */\n      0x40\n        /* \"#utility.yul\":2710:2732   */\n      mstore\n        /* \"#utility.yul\":2500:2738   */\n      pop\n        /* \"#utility.yul\":2457:2738   */\n      pop\n      pop\n      jump\t// out\n        /* \"#utility.yul\":2744:2873   */\n    tag_69:\n        /* \"#utility.yul\":2778:2784   */\n      0x00\n        /* \"#utility.yul\":2805:2825   */\n      tag_122\n      tag_58\n      jump\t// in\n    tag_122:\n        /* \"#utility.yul\":2795:2825   */\n      swap1\n      pop\n        /* \"#utility.yul\":2834:2867   */\n      tag_123\n        /* \"#utility.yul\":2862:2866   */\n      dup3\n        /* \"#utility.yul\":2854:2860   */\n      dup3\n        /* \"#utility.yul\":2834:2867   */\n      tag_68\n      jump\t// in\n    tag_123:\n        /* \"#utility.yul\":2744:2873   */\n      swap2\n      swap1\n      pop\n      jump\t// out\n        /* \"#utility.yul\":2879:3187   */\n    tag_70:\n        /* \"#utility.yul\":2941:2945   */\n      0x00\n        /* \"#utility.yul\":3031:3049   */\n      0xffffffffffffffff\n        /* \"#utility.yul\":3023:3029   */\n      dup3\n        /* \"#utility.yul\":3020:3050   */\n      gt\n        /* \"#utility.yul\":3017:3073   */\n      iszero\n      tag_125\n      jumpi\n        /* \"#utility.yul\":3053:3071   */\n      tag_126\n      tag_67\n      jump\t// in\n    tag_126:\n        /* \"#utility.yul\":3017:3073   */\n    tag_125:\n        /* \"#utility.yul\":3091:3120   */\n      tag_127\n        /* \"#utility.yul\":3113:3119   */\n      dup3\n        /* \"#utility.yul\":3091:3120   */\n      tag_66\n      jump\t// in\n    tag_127:\n        /* \"#utility.yul\":3083:3120   */\n      swap1\n      pop\n        /* \"#utility.yul\":3175:3179   */\n      0x20\n        /* \"#utility.yul\":3169:3173   */\n      dup2\n        /* \"#utility.yul\":3165:3180   */\n      add\n        /* \"#utility.yul\":3157:3180   */\n      swap1\n      pop\n        /* \"#utility.yul\":2879:3187   */\n      swap2\n      swap1\n      pop\n      jump\t// out\n        /* \"#utility.yul\":3193:3339   */\n    tag_71:\n        /* \"#utility.yul\":3290:3296   */\n      dup3\n        /* \"#utility.yul\":3285:3288   */\n      dup2\n        /* \"#utility.yul\":3280:3283   */\n      dup4\n        /* \"#utility.yul\":3267:3297   */\n      calldatacopy\n        /* \"#utility.yul\":3331:3332   */\n      0x00\n        /* \"#utility.yul\":3322:3328   */\n      dup4\n        /* \"#utility.yul\":3317:3320   */\n      dup4\n        /* \"#utility.yul\":3313:3329   */\n      add\n        /* \"#utility.yul\":3306:3333   */\n      mstore\n        /* \"#utility.yul\":3193:3339   */\n      pop\n      pop\n      pop\n      jump\t// out\n        /* \"#utility.yul\":3345:3770   */\n    tag_72:\n        /* \"#utility.yul\":3423:3428   */\n      0x00\n        /* \"#utility.yul\":3448:3514   */\n      tag_130\n        /* \"#utility.yul\":3464:3513   */\n      tag_131\n        /* \"#utility.yul\":3506:3512   */\n      dup5\n        /* \"#utility.yul\":3464:3513   */\n      tag_70\n      jump\t// in\n    tag_131:\n        /* \"#utility.yul\":3448:3514   */\n      tag_69\n      jump\t// in\n    tag_130:\n        /* \"#utility.yul\":3439:3514   */\n      swap1\n      pop\n        /* \"#utility.yul\":3537:3543   */\n      dup3\n        /* \"#utility.yul\":3530:3535   */\n      dup2\n        /* \"#utility.yul\":3523:3544   */\n      mstore\n        /* \"#utility.yul\":3575:3579   */\n      0x20\n        /* \"#utility.yul\":3568:3573   */\n      dup2\n        /* \"#utility.yul\":3564:3580   */\n      add\n        /* \"#utility.yul\":3613:3616   */\n      dup5\n        /* \"#utility.yul\":3604:3610   */\n      dup5\n        /* \"#utility.yul\":3599:3602   */\n      dup5\n        /* \"#utility.yul\":3595:3611   */\n      add\n        /* \"#utility.yul\":3592:3617   */\n      gt\n        /* \"#utility.yul\":3589:3701   */\n      iszero\n      tag_132\n      jumpi\n        /* \"#utility.yul\":3620:3699   */\n      tag_133\n      tag_65\n      jump\t// in\n    tag_133:\n        /* \"#utility.yul\":3589:3701   */\n    tag_132:\n        /* \"#utility.yul\":3710:3764   */\n      tag_134\n        /* \"#utility.yul\":3757:3763   */\n      dup5\n        /* \"#utility.yul\":3752:3755   */\n      dup3\n        /* \"#utility.yul\":3747:3750   */\n      dup6\n        /* \"#utility.yul\":3710:3764   */\n      tag_71\n      jump\t// in\n    tag_134:\n        /* \"#utility.yul\":3429:3770   */\n      pop\n        /* \"#utility.yul\":3345:3770   */\n      swap4\n      swap3\n      pop\n      pop\n      pop\n      jump\t// out\n        /* \"#utility.yul\":3790:4130   */\n    tag_73:\n        /* \"#utility.yul\":3846:3851   */\n      0x00\n        /* \"#utility.yul\":3895:3898   */\n      dup3\n        /* \"#utility.yul\":3888:3892   */\n      0x1f\n        /* \"#utility.yul\":3880:3886   */\n      dup4\n        /* \"#utility.yul\":3876:3893   */\n      add\n        /* \"#utility.yul\":3872:3899   */\n      slt\n        /* \"#utility.yul\":3862:3984   */\n      tag_136\n      jumpi\n        /* \"#utility.yul\":3903:3982   */\n      tag_137\n      tag_64\n      jump\t// in\n    tag_137:\n        /* \"#utility.yul\":3862:3984   */\n    tag_136:\n        /* \"#utility.yul\":4020:4026   */\n      dup2\n        /* \"#utility.yul\":4007:4027   */\n      calldataload\n        /* \"#utility.yul\":4045:4124   */\n      tag_138\n        /* \"#utility.yul\":4120:4123   */\n      dup5\n        /* \"#utility.yul\":4112:4118   */\n      dup3\n        /* \"#utility.yul\":4105:4109   */\n      0x20\n        /* \"#utility.yul\":4097:4103   */\n      dup7\n        /* \"#utility.yul\":4093:4110   */\n      add\n        /* \"#utility.yul\":4045:4124   */\n      tag_72\n      jump\t// in\n    tag_138:\n        /* \"#utility.yul\":4036:4124   */\n      swap2\n      pop\n        /* \"#utility.yul\":3852:4130   */\n      pop\n        /* \"#utility.yul\":3790:4130   */\n      swap3\n      swap2\n      pop\n      pop\n      jump\t// out\n        /* \"#utility.yul\":4136:4935   */\n    tag_16:\n        /* \"#utility.yul\":4223:4229   */\n      0x00\n        /* \"#utility.yul\":4231:4237   */\n      dup1\n        /* \"#utility.yul\":4239:4245   */\n      0x00\n        /* \"#utility.yul\":4288:4290   */\n      0x60\n        /* \"#utility.yul\":4276:4285   */\n      dup5\n        /* \"#utility.yul\":4267:4274   */\n      dup7\n        /* \"#utility.yul\":4263:4286   */\n      sub\n        /* \"#utility.yul\":4259:4291   */\n      slt\n        /* \"#utility.yul\":4256:4375   */\n      iszero\n      tag_140\n      jumpi\n        /* \"#utility.yul\":4294:4373   */\n      tag_141\n      tag_59\n      jump\t// in\n    tag_141:\n        /* \"#utility.yul\":4256:4375   */\n    tag_140:\n        /* \"#utility.yul\":4414:4415   */\n      0x00\n        /* \"#utility.yul\":4439:4492   */\n      tag_142\n        /* \"#utility.yul\":4484:4491   */\n      dup7\n        /* \"#utility.yul\":4475:4481   */\n      dup3\n        /* \"#utility.yul\":4464:4473   */\n      dup8\n        /* \"#utility.yul\":4460:4482   */\n      add\n        /* \"#utility.yul\":4439:4492   */\n      tag_63\n      jump\t// in\n    tag_142:\n        /* \"#utility.yul\":4429:4492   */\n      swap4\n      pop\n        /* \"#utility.yul\":4385:4502   */\n      pop\n        /* \"#utility.yul\":4569:4571   */\n      0x20\n        /* \"#utility.yul\":4558:4567   */\n      dup5\n        /* \"#utility.yul\":4554:4572   */\n      add\n        /* \"#utility.yul\":4541:4573   */\n      calldataload\n        /* \"#utility.yul\":4600:4618   */\n      0xffffffffffffffff\n        /* \"#utility.yul\":4592:4598   */\n      dup2\n        /* \"#utility.yul\":4589:4619   */\n      gt\n        /* \"#utility.yul\":4586:4703   */\n      iszero\n      tag_143\n      jumpi\n        /* \"#utility.yul\":4622:4701   */\n      tag_144\n      tag_60\n      jump\t// in\n    tag_144:\n        /* \"#utility.yul\":4586:4703   */\n    tag_143:\n        /* \"#utility.yul\":4727:4790   */\n      tag_145\n        /* \"#utility.yul\":4782:4789   */\n      dup7\n        /* \"#utility.yul\":4773:4779   */\n      dup3\n        /* \"#utility.yul\":4762:4771   */\n      dup8\n        /* \"#utility.yul\":4758:4780   */\n      add\n        /* \"#utility.yul\":4727:4790   */\n      tag_73\n      jump\t// in\n    tag_145:\n        /* \"#utility.yul\":4717:4790   */\n      swap3\n      pop\n        /* \"#utility.yul\":4512:4800   */\n      pop\n        /* \"#utility.yul\":4839:4841   */\n      0x40\n        /* \"#utility.yul\":4865:4918   */\n      tag_146\n        /* \"#utility.yul\":4910:4917   */\n      dup7\n        /* \"#utility.yul\":4901:4907   */\n      dup3\n        /* \"#utility.yul\":4890:4899   */\n      dup8\n        /* \"#utility.yul\":4886:4908   */\n      add\n        /* \"#utility.yul\":4865:4918   */\n      tag_63\n      jump\t// in\n    tag_146:\n        /* \"#utility.yul\":4855:4918   */\n      swap2\n      pop\n        /* \"#utility.yul\":4810:4928   */\n      pop\n        /* \"#utility.yul\":4136:4935   */\n      swap3\n      pop\n      swap3\n      pop\n      swap3\n      jump\t// out\n        /* \"#utility.yul\":4941:5059   */\n    tag_74:\n        /* \"#utility.yul\":5028:5052   */\n      tag_148\n        /* \"#utility.yul\":5046:5051   */\n      dup2\n        /* \"#utility.yul\":5028:5052   */\n      tag_61\n      jump\t// in\n    tag_148:\n        /* \"#utility.yul\":5023:5026   */\n      dup3\n        /* \"#utility.yul\":5016:5053   */\n      mstore\n        /* \"#utility.yul\":4941:5059   */\n      pop\n      pop\n      jump\t// out\n        /* \"#utility.yul\":5065:5287   */\n    tag_21:\n        /* \"#utility.yul\":5158:5162   */\n      0x00\n        /* \"#utility.yul\":5196:5198   */\n      0x20\n        /* \"#utility.yul\":5185:5194   */\n      dup3\n        /* \"#utility.yul\":5181:5199   */\n      add\n        /* \"#utility.yul\":5173:5199   */\n      swap1\n      pop\n        /* \"#utility.yul\":5209:5280   */\n      tag_150\n        /* \"#utility.yul\":5277:5278   */\n      0x00\n        /* \"#utility.yul\":5266:5275   */\n      dup4\n        /* \"#utility.yul\":5262:5279   */\n      add\n        /* \"#utility.yul\":5253:5259   */\n      dup5\n        /* \"#utility.yul\":5209:5280   */\n      tag_74\n      jump\t// in\n    tag_150:\n        /* \"#utility.yul\":5065:5287   */\n      swap3\n      swap2\n      pop\n      pop\n      jump\t// out\n        /* \"#utility.yul\":5293:5622   */\n    tag_24:\n        /* \"#utility.yul\":5352:5358   */\n      0x00\n        /* \"#utility.yul\":5401:5403   */\n      0x20\n        /* \"#utility.yul\":5389:5398   */\n      dup3\n        /* \"#utility.yul\":5380:5387   */\n      dup5\n        /* \"#utility.yul\":5376:5399   */\n      sub\n        /* \"#utility.yul\":5372:5404   */\n      slt\n        /* \"#utility.yul\":5369:5488   */\n      iszero\n      tag_152\n      jumpi\n        /* \"#utility.yul\":5407:5486   */\n      tag_153\n      tag_59\n      jump\t// in\n    tag_153:\n        /* \"#utility.yul\":5369:5488   */\n    tag_152:\n        /* \"#utility.yul\":5527:5528   */\n      0x00\n        /* \"#utility.yul\":5552:5605   */\n      tag_154\n        /* \"#utility.yul\":5597:5604   */\n      dup5\n        /* \"#utility.yul\":5588:5594   */\n      dup3\n        /* \"#utility.yul\":5577:5586   */\n      dup6\n        /* \"#utility.yul\":5573:5595   */\n      add\n        /* \"#utility.yul\":5552:5605   */\n      tag_63\n      jump\t// in\n    tag_154:\n        /* \"#utility.yul\":5542:5605   */\n      swap2\n      pop\n        /* \"#utility.yul\":5498:5615   */\n      pop\n        /* \"#utility.yul\":5293:5622   */\n      swap3\n      swap2\n      pop\n      pop\n      jump\t// out\n        /* \"#utility.yul\":5628:6137   */\n    tag_28:\n        /* \"#utility.yul\":5697:5703   */\n      0x00\n        /* \"#utility.yul\":5746:5748   */\n      0x20\n        /* \"#utility.yul\":5734:5743   */\n      dup3\n        /* \"#utility.yul\":5725:5732   */\n      dup5\n        /* \"#utility.yul\":5721:5744   */\n      sub\n        /* \"#utility.yul\":5717:5749   */\n      slt\n        /* \"#utility.yul\":5714:5833   */\n      iszero\n      tag_156\n      jumpi\n        /* \"#utility.yul\":5752:5831   */\n      tag_157\n      tag_59\n      jump\t// in\n    tag_157:\n        /* \"#utility.yul\":5714:5833   */\n    tag_156:\n        /* \"#utility.yul\":5900:5901   */\n      0x00\n        /* \"#utility.yul\":5889:5898   */\n      dup3\n        /* \"#utility.yul\":5885:5902   */\n      add\n        /* \"#utility.yul\":5872:5903   */\n      calldataload\n        /* \"#utility.yul\":5930:5948   */\n      0xffffffffffffffff\n        /* \"#utility.yul\":5922:5928   */\n      dup2\n        /* \"#utility.yul\":5919:5949   */\n      gt\n        /* \"#utility.yul\":5916:6033   */\n      iszero\n      tag_158\n      jumpi\n        /* \"#utility.yul\":5952:6031   */\n      tag_159\n      tag_60\n      jump\t// in\n    tag_159:\n        /* \"#utility.yul\":5916:6033   */\n    tag_158:\n        /* \"#utility.yul\":6057:6120   */\n      tag_160\n        /* \"#utility.yul\":6112:6119   */\n      dup5\n        /* \"#utility.yul\":6103:6109   */\n      dup3\n        /* \"#utility.yul\":6092:6101   */\n      dup6\n        /* \"#utility.yul\":6088:6110   */\n      add\n        /* \"#utility.yul\":6057:6120   */\n      tag_73\n      jump\t// in\n    tag_160:\n        /* \"#utility.yul\":6047:6120   */\n      swap2\n      pop\n        /* \"#utility.yul\":5843:6130   */\n      pop\n        /* \"#utility.yul\":5628:6137   */\n      swap3\n      swap2\n      pop\n      pop\n      jump\t// out\n        /* \"#utility.yul\":6143:6242   */\n    tag_75:\n        /* \"#utility.yul\":6195:6201   */\n      0x00\n        /* \"#utility.yul\":6229:6234   */\n      dup2\n        /* \"#utility.yul\":6223:6235   */\n      mload\n        /* \"#utility.yul\":6213:6235   */\n      swap1\n      pop\n        /* \"#utility.yul\":6143:6242   */\n      swap2\n      swap1\n      pop\n      jump\t// out\n        /* \"#utility.yul\":6248:6494   */\n    tag_76:\n        /* \"#utility.yul\":6329:6330   */\n      0x00\n        /* \"#utility.yul\":6339:6452   */\n    tag_163:\n        /* \"#utility.yul\":6353:6359   */\n      dup4\n        /* \"#utility.yul\":6350:6351   */\n      dup2\n        /* \"#utility.yul\":6347:6360   */\n      lt\n        /* \"#utility.yul\":6339:6452   */\n      iszero\n      tag_165\n      jumpi\n        /* \"#utility.yul\":6438:6439   */\n      dup1\n        /* \"#utility.yul\":6433:6436   */\n      dup3\n        /* \"#utility.yul\":6429:6440   */\n      add\n        /* \"#utility.yul\":6423:6441   */\n      mload\n        /* \"#utility.yul\":6419:6420   */\n      dup2\n        /* \"#utility.yul\":6414:6417   */\n      dup5\n        /* \"#utility.yul\":6410:6421   */\n      add\n        /* \"#utility.yul\":6403:6442   */\n      mstore\n        /* \"#utility.yul\":6375:6377   */\n      0x20\n        /* \"#utility.yul\":6372:6373   */\n      dup2\n        /* \"#utility.yul\":6368:6378   */\n      add\n        /* \"#utility.yul\":6363:6378   */\n      swap1\n      pop\n        /* \"#utility.yul\":6339:6452   */\n      jump(tag_163)\n    tag_165:\n        /* \"#utility.yul\":6486:6487   */\n      0x00\n        /* \"#utility.yul\":6477:6483   */\n      dup5\n        /* \"#utility.yul\":6472:6475   */\n      dup5\n        /* \"#utility.yul\":6468:6484   */\n      add\n        /* \"#utility.yul\":6461:6488   */\n      mstore\n        /* \"#utility.yul\":6310:6494   */\n      pop\n        /* \"#utility.yul\":6248:6494   */\n      pop\n      pop\n      pop\n      jump\t// out\n        /* \"#utility.yul\":6500:6877   */\n    tag_77:\n        /* \"#utility.yul\":6588:6591   */\n      0x00\n        /* \"#utility.yul\":6616:6655   */\n      tag_167\n        /* \"#utility.yul\":6649:6654   */\n      dup3\n        /* \"#utility.yul\":6616:6655   */\n      tag_75\n      jump\t// in\n    tag_167:\n        /* \"#utility.yul\":6671:6742   */\n      tag_168\n        /* \"#utility.yul\":6735:6741   */\n      dup2\n        /* \"#utility.yul\":6730:6733   */\n      dup6\n        /* \"#utility.yul\":6671:6742   */\n      tag_55\n      jump\t// in\n    tag_168:\n        /* \"#utility.yul\":6664:6742   */\n      swap4\n      pop\n        /* \"#utility.yul\":6751:6816   */\n      tag_169\n        /* \"#utility.yul\":6809:6815   */\n      dup2\n        /* \"#utility.yul\":6804:6807   */\n      dup6\n        /* \"#utility.yul\":6797:6801   */\n      0x20\n        /* \"#utility.yul\":6790:6795   */\n      dup7\n        /* \"#utility.yul\":6786:6802   */\n      add\n        /* \"#utility.yul\":6751:6816   */\n      tag_76\n      jump\t// in\n    tag_169:\n        /* \"#utility.yul\":6841:6870   */\n      tag_170\n        /* \"#utility.yul\":6863:6869   */\n      dup2\n        /* \"#utility.yul\":6841:6870   */\n      tag_66\n      jump\t// in\n    tag_170:\n        /* \"#utility.yul\":6836:6839   */\n      dup5\n        /* \"#utility.yul\":6832:6871   */\n      add\n        /* \"#utility.yul\":6825:6871   */\n      swap2\n      pop\n        /* \"#utility.yul\":6592:6877   */\n      pop\n        /* \"#utility.yul\":6500:6877   */\n      swap3\n      swap2\n      pop\n      pop\n      jump\t// out\n        /* \"#utility.yul\":6883:7416   */\n    tag_35:\n        /* \"#utility.yul\":7052:7056   */\n      0x00\n        /* \"#utility.yul\":7090:7092   */\n      0x60\n        /* \"#utility.yul\":7079:7088   */\n      dup3\n        /* \"#utility.yul\":7075:7093   */\n      add\n        /* \"#utility.yul\":7067:7093   */\n      swap1\n      pop\n        /* \"#utility.yul\":7103:7174   */\n      tag_172\n        /* \"#utility.yul\":7171:7172   */\n      0x00\n        /* \"#utility.yul\":7160:7169   */\n      dup4\n        /* \"#utility.yul\":7156:7173   */\n      add\n        /* \"#utility.yul\":7147:7153   */\n      dup7\n        /* \"#utility.yul\":7103:7174   */\n      tag_74\n      jump\t// in\n    tag_172:\n        /* \"#utility.yul\":7221:7230   */\n      dup2\n        /* \"#utility.yul\":7215:7219   */\n      dup2\n        /* \"#utility.yul\":7211:7231   */\n      sub\n        /* \"#utility.yul\":7206:7208   */\n      0x20\n        /* \"#utility.yul\":7195:7204   */\n      dup4\n        /* \"#utility.yul\":7191:7209   */\n      add\n        /* \"#utility.yul\":7184:7232   */\n      mstore\n        /* \"#utility.yul\":7249:7327   */\n      tag_173\n        /* \"#utility.yul\":7322:7326   */\n      dup2\n        /* \"#utility.yul\":7313:7319   */\n      dup6\n        /* \"#utility.yul\":7249:7327   */\n      tag_77\n      jump\t// in\n    tag_173:\n        /* \"#utility.yul\":7241:7327   */\n      swap1\n      pop\n        /* \"#utility.yul\":7337:7409   */\n      tag_174\n        /* \"#utility.yul\":7405:7407   */\n      0x40\n        /* \"#utility.yul\":7394:7403   */\n      dup4\n        /* \"#utility.yul\":7390:7408   */\n      add\n        /* \"#utility.yul\":7381:7387   */\n      dup5\n        /* \"#utility.yul\":7337:7409   */\n      tag_74\n      jump\t// in\n    tag_174:\n        /* \"#utility.yul\":6883:7416   */\n      swap5\n      swap4\n      pop\n      pop\n      pop\n      pop\n      jump\t// out\n        /* \"#utility.yul\":7422:7602   */\n    tag_78:\n        /* \"#utility.yul\":7470:7547   */\n      0x4e487b7100000000000000000000000000000000000000000000000000000000\n        /* \"#utility.yul\":7467:7468   */\n      0x00\n        /* \"#utility.yul\":7460:7548   */\n      mstore\n        /* \"#utility.yul\":7567:7571   */\n      0x22\n        /* \"#utility.yul\":7564:7565   */\n      0x04\n        /* \"#utility.yul\":7557:7572   */\n      mstore\n        /* \"#utility.yul\":7591:7595   */\n      0x24\n        /* \"#utility.yul\":7588:7589   */\n      0x00\n        /* \"#utility.yul\":7581:7596   */\n      revert\n        /* \"#utility.yul\":7608:7928   */\n    tag_49:\n        /* \"#utility.yul\":7652:7658   */\n      0x00\n        /* \"#utility.yul\":7689:7690   */\n      0x02\n        /* \"#utility.yul\":7683:7687   */\n      dup3\n        /* \"#utility.yul\":7679:7691   */\n      div\n        /* \"#utility.yul\":7669:7691   */\n      swap1\n      pop\n        /* \"#utility.yul\":7736:7737   */\n      0x01\n        /* \"#utility.yul\":7730:7734   */\n      dup3\n        /* \"#utility.yul\":7726:7738   */\n      and\n        /* \"#utility.yul\":7757:7775   */\n      dup1\n        /* \"#utility.yul\":7747:7828   */\n      tag_177\n      jumpi\n        /* \"#utility.yul\":7813:7817   */\n      0x7f\n        /* \"#utility.yul\":7805:7811   */\n      dup3\n        /* \"#utility.yul\":7801:7818   */\n      and\n        /* \"#utility.yul\":7791:7818   */\n      swap2\n      pop\n        /* \"#utility.yul\":7747:7828   */\n    tag_177:\n        /* \"#utility.yul\":7875:7877   */\n      0x20\n        /* \"#utility.yul\":7867:7873   */\n      dup3\n        /* \"#utility.yul\":7864:7878   */\n      lt\n        /* \"#utility.yul\":7844:7862   */\n      dup2\n        /* \"#utility.yul\":7841:7879   */\n      sub\n        /* \"#utility.yul\":7838:7922   */\n      tag_178\n      jumpi\n        /* \"#utility.yul\":7894:7912   */\n      tag_179\n      tag_78\n      jump\t// in\n    tag_179:\n        /* \"#utility.yul\":7838:7922   */\n    tag_178:\n        /* \"#utility.yul\":7659:7928   */\n      pop\n        /* \"#utility.yul\":7608:7928   */\n      swap2\n      swap1\n      pop\n      jump\t// out\n        /* \"#utility.yul\":7934:8075   */\n    tag_79:\n        /* \"#utility.yul\":7983:7987   */\n      0x00\n        /* \"#utility.yul\":8006:8009   */\n      dup2\n        /* \"#utility.yul\":7998:8009   */\n      swap1\n      pop\n        /* \"#utility.yul\":8029:8032   */\n      dup2\n        /* \"#utility.yul\":8026:8027   */\n      0x00\n        /* \"#utility.yul\":8019:8033   */\n      mstore\n        /* \"#utility.yul\":8063:8067   */\n      0x20\n        /* \"#utility.yul\":8060:8061   */\n      0x00\n        /* \"#utility.yul\":8050:8068   */\n      keccak256\n        /* \"#utility.yul\":8042:8068   */\n      swap1\n      pop\n        /* \"#utility.yul\":7934:8075   */\n      swap2\n      swap1\n      pop\n      jump\t// out\n        /* \"#utility.yul\":8081:8174   */\n    tag_80:\n        /* \"#utility.yul\":8118:8124   */\n      0x00\n        /* \"#utility.yul\":8165:8167   */\n      0x20\n        /* \"#utility.yul\":8160:8162   */\n      0x1f\n        /* \"#utility.yul\":8153:8158   */\n      dup4\n        /* \"#utility.yul\":8149:8163   */\n      add\n        /* \"#utility.yul\":8145:8168   */\n      div\n        /* \"#utility.yul\":8135:8168   */\n      swap1\n      pop\n        /* \"#utility.yul\":8081:8174   */\n      swap2\n      swap1\n      pop\n      jump\t// out\n        /* \"#utility.yul\":8180:8287   */\n    tag_81:\n        /* \"#utility.yul\":8224:8232   */\n      0x00\n        /* \"#utility.yul\":8274:8279   */\n      dup3\n        /* \"#utility.yul\":8268:8272   */\n      dup3\n        /* \"#utility.yul\":8264:8280   */\n      shl\n        /* \"#utility.yul\":8243:8280   */\n      swap1\n      pop\n        /* \"#utility.yul\":8180:8287   */\n      swap3\n      swap2\n      pop\n      pop\n      jump\t// out\n        /* \"#utility.yul\":8293:8686   */\n    tag_82:\n        /* \"#utility.yul\":8362:8368   */\n      0x00\n        /* \"#utility.yul\":8412:8413   */\n      0x08\n        /* \"#utility.yul\":8400:8410   */\n      dup4\n        /* \"#utility.yul\":8396:8414   */\n      mul\n        /* \"#utility.yul\":8435:8532   */\n      tag_184\n        /* \"#utility.yul\":8465:8531   */\n      0xffffffffffffffffffffffffffffffffffffffffffffffffffffffffffffffff\n        /* \"#utility.yul\":8454:8463   */\n      dup3\n        /* \"#utility.yul\":8435:8532   */\n      tag_81\n      jump\t// in\n    tag_184:\n        /* \"#utility.yul\":8553:8592   */\n      tag_185\n        /* \"#utility.yul\":8583:8591   */\n      dup7\n        /* \"#utility.yul\":8572:8581   */\n      dup4\n        /* \"#utility.yul\":8553:8592   */\n      tag_81\n      jump\t// in\n    tag_185:\n        /* \"#utility.yul\":8541:8592   */\n      swap6\n      pop\n        /* \"#utility.yul\":8625:8629   */\n      dup1\n        /* \"#utility.yul\":8621:8630   */\n      not\n        /* \"#utility.yul\":8614:8619   */\n      dup5\n        /* \"#utility.yul\":8610:8631   */\n      and\n        /* \"#utility.yul\":8601:8631   */\n      swap4\n      pop\n        /* \"#utility.yul\":8674:8678   */\n      dup1\n        /* \"#utility.yul\":8664:8672   */\n      dup7\n        /* \"#utility.yul\":8660:8679   */\n      and\n        /* \"#utility.yul\":8653:8658   */\n      dup5\n        /* \"#utility.yul\":8650:8680   */\n      or\n        /* \"#utility.yul\":8640:8680   */\n      swap3\n      pop\n        /* \"#utility.yul\":8369:8686   */\n      pop\n      pop\n        /* \"#utility.yul\":8293:8686   */\n      swap4\n      swap3\n      pop\n      pop\n      pop\n      jump\t// out\n        /* \"#utility.yul\":8692:8752   */\n    tag_83:\n        /* \"#utility.yul\":8720:8723   */\n      0x00\n        /* \"#utility.yul\":8741:8746   */\n      dup2\n        /* \"#utility.yul\":8734:8746   */\n      swap1\n      pop\n        /* \"#utility.yul\":8692:8752   */\n      swap2\n      swap1\n      pop\n      jump\t// out\n        /* \"#utility.yul\":8758:8900   */\n    tag_84:\n        /* \"#utility.yul\":8808:8817   */\n      0x00\n        /* \"#utility.yul\":8841:8894   */\n      tag_188\n        /* \"#utility.yul\":8859:8893   */\n      tag_189\n        /* \"#utility.yul\":8868:8892   */\n      tag_190\n        /* \"#utility.yul\":8886:8891   */\n      dup5\n        /* \"#utility.yul\":8868:8892   */\n      tag_61\n      jump\t// in\n    tag_190:\n        /* \"#utility.yul\":8859:8893   */\n      tag_83\n      jump\t// in\n    tag_189:\n        /* \"#utility.yul\":8841:8894   */\n      tag_61\n      jump\t// in\n    tag_188:\n        /* \"#utility.yul\":8828:8894   */\n      swap1\n      pop\n        /* \"#utility.yul\":8758:8900   */\n      swap2\n      swap1\n      pop\n      jump\t// out\n        /* \"#utility.yul\":8906:8981   */\n    tag_85:\n        /* \"#utility.yul\":8949:8952   */\n      0x00\n        /* \"#utility.yul\":8970:8975   */\n      dup2\n        /* \"#utility.yul\":8963:8975   */\n      swap1\n      pop\n        /* \"#utility.yul\":8906:8981   */\n      swap2\n      swap1\n      pop\n      jump\t// out\n        /* \"#utility.yul\":8987:9256   */\n    tag_86:\n        /* \"#utility.yul\":9097:9136   */\n      tag_193\n        /* \"#utility.yul\":9128:9135   */\n      dup4\n        /* \"#utility.yul\":9097:9136   */\n      tag_84\n      jump\t// in\n    tag_193:\n        /* \"#utility.yul\":9158:9249   */\n      tag_194\n        /* \"#utility.yul\":9207:9248   */\n      tag_195\n        /* \"#utility.yul\":9231:9247   */\n      dup3\n        /* \"#utility.yul\":9207:9248   */\n      tag_85\n      jump\t// in\n    tag_195:\n        /* \"#utility.yul\":9199:9205   */\n      dup5\n        /* \"#utility.yul\":9192:9196   */\n      dup5\n        /* \"#utility.yul\":9186:9197   */\n      sload\n        /* \"#utility.yul\":9158:9249   */\n      tag_82\n      jump\t// in\n    tag_194:\n        /* \"#utility.yul\":9152:9156   */\n      dup3\n        /* \"#utility.yul\":9145:9250   */\n      sstore\n        /* \"#utility.yul\":9063:9256   */\n      pop\n        /* \"#utility.yul\":8987:9256   */\n      pop\n      pop\n      pop\n      jump\t// out\n        /* \"#utility.yul\":9262:9335   */\n    tag_87:\n        /* \"#utility.yul\":9307:9310   */\n      0x00\n        /* \"#utility.yul\":9262:9335   */\n      swap1\n      jump\t// out\n        /* \"#utility.yul\":9341:9530   */\n    tag_88:\n        /* \"#utility.yul\":9418:9450   */\n      tag_198\n      tag_87\n      jump\t// in\n    tag_198:\n        /* \"#utility.yul\":9459:9524   */\n      tag_199\n        /* \"#utility.yul\":9517:9523   */\n      dup2\n        /* \"#utility.yul\":9509:9515   */\n      dup5\n        /* \"#utility.yul\":9503:9507   */\n      dup5\n        /* \"#utility.yul\":9459:9524   */\n      tag_86\n      jump\t// in\n    tag_199:\n        /* \"#utility.yul\":9394:9530   */\n      pop\n        /* \"#utility.yul\":9341:9530   */\n      pop\n      pop\n      jump\t// out\n        /* \"#utility.yul\":9536:9722   */\n    tag_89:\n        /* \"#utility.yul\":9596:9716   */\n    tag_201:\n        /* \"#utility.yul\":9613:9616   */\n      dup2\n        /* \"#utility.yul\":9606:9611   */\n      dup2\n        /* \"#utility.yul\":9603:9617   */\n      lt\n        /* \"#utility.yul\":9596:9716   */\n      iszero\n      tag_203\n      jumpi\n        /* \"#utility.yul\":9667:9706   */\n      tag_204\n        /* \"#utility.yul\":9704:9705   */\n      0x00\n        /* \"#utility.yul\":9697:9702   */\n      dup3\n        /* \"#utility.yul\":9667:9706   */\n      tag_88\n      jump\t// in\n    tag_204:\n        /* \"#utility.yul\":9640:9641   */\n      0x01\n        /* \"#utility.yul\":9633:9638   */\n      dup2\n        /* \"#utility.yul\":9629:9642   */\n      add\n        /* \"#utility.yul\":9620:9642   */\n      swap1\n      pop\n        /* \"#utility.yul\":9596:9716   */\n      jump(tag_201)\n    tag_203:\n        /* \"#utility.yul\":9536:9722   */\n      pop\n      pop\n      jump\t// out\n        /* \"#utility.yul\":9728:10271   */\n    tag_90:\n        /* \"#utility.yul\":9829:9831   */\n      0x1f\n        /* \"#utility.yul\":9824:9827   */\n      dup3\n        /* \"#utility.yul\":9821:9832   */\n      gt\n        /* \"#utility.yul\":9818:10264   */\n      iszero\n      tag_206\n      jumpi\n        /* \"#utility.yul\":9863:9901   */\n      tag_207\n        /* \"#utility.yul\":9895:9900   */\n      dup2\n        /* \"#utility.yul\":9863:9901   */\n      tag_79\n      jump\t// in\n    tag_207:\n        /* \"#utility.yul\":9947:9976   */\n      tag_208\n        /* \"#utility.yul\":9965:9975   */\n      dup5\n        /* \"#utility.yul\":9947:9976   */\n      tag_80\n      jump\t// in\n    tag_208:\n        /* \"#utility.yul\":9937:9945   */\n      dup2\n        /* \"#utility.yul\":9933:9977   */\n      add\n        /* \"#utility.yul\":10130:10132   */\n      0x20\n        /* \"#utility.yul\":10118:10128   */\n      dup6\n        /* \"#utility.yul\":10115:10133   */\n      lt\n        /* \"#utility.yul\":10112:10161   */\n      iszero\n      tag_209\n      jumpi\n        /* \"#utility.yul\":10151:10159   */\n      dup2\n        /* \"#utility.yul\":10136:10159   */\n      swap1\n      pop\n        /* \"#utility.yul\":10112:10161   */\n    tag_209:\n        /* \"#utility.yul\":10174:10254   */\n      tag_210\n        /* \"#utility.yul\":10230:10252   */\n      tag_211\n        /* \"#utility.yul\":10248:10251   */\n      dup6\n        /* \"#utility.yul\":10230:10252   */\n      tag_80\n      jump\t// in\n    tag_211:\n        /* \"#utility.yul\":10220:10228   */\n      dup4\n        /* \"#utility.yul\":10216:10253   */\n      add\n        /* \"#utility.yul\":10203:10214   */\n      dup3\n        /* \"#utility.yul\":10174:10254   */\n      tag_89\n      jump\t// in\n    tag_210:\n        /* \"#utility.yul\":9833:10264   */\n      pop\n      pop\n        /* \"#utility.yul\":9818:10264   */\n    tag_206:\n        /* \"#utility.yul\":9728:10271   */\n      pop\n      pop\n      pop\n      jump\t// out\n        /* \"#utility.yul\":10277:10394   */\n    tag_91:\n        /* \"#utility.yul\":10331:10339   */\n      0x00\n        /* \"#utility.yul\":10381:10386   */\n      dup3\n        /* \"#utility.yul\":10375:10379   */\n      dup3\n        /* \"#utility.yul\":10371:10387   */\n      shr\n        /* \"#utility.yul\":10350:10387   */\n      swap1\n      pop\n        /* \"#utility.yul\":10277:10394   */\n      swap3\n      swap2\n      pop\n      pop\n      jump\t// out\n        /* \"#utility.yul\":10400:10569   */\n    tag_92:\n        /* \"#utility.yul\":10444:10450   */\n      0x00\n        /* \"#utility.yul\":10477:10528   */\n      tag_214\n        /* \"#utility.yul\":10525:10526   */\n      0x00\n        /* \"#utility.yul\":10521:10527   */\n      not\n        /* \"#utility.yul\":10513:10518   */\n      dup5\n        /* \"#utility.yul\":10510:10511   */\n      0x08\n        /* \"#utility.yul\":10506:10519   */\n      mul\n        /* \"#utility.yul\":10477:10528   */\n      tag_91\n      jump\t// in\n    tag_214:\n        /* \"#utility.yul\":10473:10529   */\n      not\n        /* \"#utility.yul\":10558:10562   */\n      dup1\n        /* \"#utility.yul\":10552:10556   */\n      dup4\n        /* \"#utility.yul\":10548:10563   */\n      and\n        /* \"#utility.yul\":10538:10563   */\n      swap2\n      pop\n        /* \"#utility.yul\":10451:10569   */\n      pop\n        /* \"#utility.yul\":10400:10569   */\n      swap3\n      swap2\n      pop\n      pop\n      jump\t// out\n        /* \"#utility.yul\":10574:10869   */\n    tag_93:\n        /* \"#utility.yul\":10650:10654   */\n      0x00\n        /* \"#utility.yul\":10796:10825   */\n      tag_216\n        /* \"#utility.yul\":10821:10824   */\n      dup4\n        /* \"#utility.yul\":10815:10819   */\n      dup4\n        /* \"#utility.yul\":10796:10825   */\n      tag_92\n      jump\t// in\n    tag_216:\n        /* \"#utility.yul\":10788:10825   */\n      swap2\n      pop\n        /* \"#utility.yul\":10858:10861   */\n      dup3\n        /* \"#utility.yul\":10855:10856   */\n      0x02\n        /* \"#utility.yul\":10851:10862   */\n      mul\n        /* \"#utility.yul\":10845:10849   */\n      dup3\n        /* \"#utility.yul\":10842:10863   */\n      or\n        /* \"#utility.yul\":10834:10863   */\n      swap1\n      pop\n        /* \"#utility.yul\":10574:10869   */\n      swap3\n      swap2\n      pop\n      pop\n      jump\t// out\n        /* \"#utility.yul\":10874:12269   */\n    tag_42:\n        /* \"#utility.yul\":10991:11028   */\n      tag_218\n        /* \"#utility.yul\":11024:11027   */\n      dup3\n        /* \"#utility.yul\":10991:11028   */\n      tag_75\n      jump\t// in\n    tag_218:\n        /* \"#utility.yul\":11093:11111   */\n      0xffffffffffffffff\n        /* \"#utility.yul\":11085:11091   */\n      dup2\n        /* \"#utility.yul\":11082:11112   */\n      gt\n        /* \"#utility.yul\":11079:11135   */\n      iszero\n      tag_219\n      jumpi\n        /* \"#utility.yul\":11115:11133   */\n      tag_220\n      tag_67\n      jump\t// in\n    tag_220:\n        /* \"#utility.yul\":11079:11135   */\n    tag_219:\n        /* \"#utility.yul\":11159:11197   */\n      tag_221\n        /* \"#utility.yul\":11191:11195   */\n      dup3\n        /* \"#utility.yul\":11185:11196   */\n      sload\n        /* \"#utility.yul\":11159:11197   */\n      tag_49\n      jump\t// in\n    tag_221:\n        /* \"#utility.yul\":11244:11311   */\n      tag_222\n        /* \"#utility.yul\":11304:11310   */\n      dup3\n        /* \"#utility.yul\":11296:11302   */\n      dup3\n        /* \"#utility.yul\":11290:11294   */\n      dup6\n        /* \"#utility.yul\":11244:11311   */\n      tag_90\n      jump\t// in\n    tag_222:\n        /* \"#utility.yul\":11338:11339   */\n      0x00\n        /* \"#utility.yul\":11362:11366   */\n      0x20\n        /* \"#utility.yul\":11349:11366   */\n      swap1\n      pop\n        /* \"#utility.yul\":11394:11396   */\n      0x1f\n        /* \"#utility.yul\":11386:11392   */\n      dup4\n        /* \"#utility.yul\":11383:11397   */\n      gt\n        /* \"#utility.yul\":11411:11412   */\n      0x01\n        /* \"#utility.yul\":11406:12024   */\n      dup2\n      eq\n      tag_224\n      jumpi\n        /* \"#utility.yul\":12068:12069   */\n      0x00\n        /* \"#utility.yul\":12085:12091   */\n      dup5\n        /* \"#utility.yul\":12082:12159   */\n      iszero\n      tag_225\n      jumpi\n        /* \"#utility.yul\":12134:12143   */\n      dup3\n        /* \"#utility.yul\":12129:12132   */\n      dup8\n        /* \"#utility.yul\":12125:12144   */\n      add\n        /* \"#utility.yul\":12119:12145   */\n      mload\n        /* \"#utility.yul\":12110:12145   */\n      swap1\n      pop\n        /* \"#utility.yul\":12082:12159   */\n    tag_225:\n        /* \"#utility.yul\":12185:12252   */\n      tag_226\n        /* \"#utility.yul\":12245:12251   */\n      dup6\n        /* \"#utility.yul\":12238:12243   */\n      dup3\n        /* \"#utility.yul\":12185:12252   */\n      tag_93\n      jump\t// in\n    tag_226:\n        /* \"#utility.yul\":12179:12183   */\n      dup7\n        /* \"#utility.yul\":12172:12253   */\n      sstore\n        /* \"#utility.yul\":12041:12263   */\n      pop\n        /* \"#utility.yul\":11376:12263   */\n      jump(tag_223)\n        /* \"#utility.yul\":11406:12024   */\n    tag_224:\n        /* \"#utility.yul\":11458:11462   */\n      0x1f\n        /* \"#utility.yul\":11454:11463   */\n      not\n        /* \"#utility.yul\":11446:11452   */\n      dup5\n        /* \"#utility.yul\":11442:11464   */\n      and\n        /* \"#utility.yul\":11492:11529   */\n      tag_227\n        /* \"#utility.yul\":11524:11528   */\n      dup7\n        /* \"#utility.yul\":11492:11529   */\n      tag_79\n      jump\t// in\n    tag_227:\n        /* \"#utility.yul\":11551:11552   */\n      0x00\n        /* \"#utility.yul\":11565:11773   */\n    tag_228:\n        /* \"#utility.yul\":11579:11586   */\n      dup3\n        /* \"#utility.yul\":11576:11577   */\n      dup2\n        /* \"#utility.yul\":11573:11587   */\n      lt\n        /* \"#utility.yul\":11565:11773   */\n      iszero\n      tag_230\n      jumpi\n        /* \"#utility.yul\":11658:11667   */\n      dup5\n        /* \"#utility.yul\":11653:11656   */\n      dup10\n        /* \"#utility.yul\":11649:11668   */\n      add\n        /* \"#utility.yul\":11643:11669   */\n      mload\n        /* \"#utility.yul\":11635:11641   */\n      dup3\n        /* \"#utility.yul\":11628:11670   */\n      sstore\n        /* \"#utility.yul\":11709:11710   */\n      0x01\n        /* \"#utility.yul\":11701:11707   */\n      dup3\n        /* \"#utility.yul\":11697:11711   */\n      add\n        /* \"#utility.yul\":11687:11711   */\n      swap2\n      pop\n        /* \"#utility.yul\":11756:11758   */\n      0x20\n        /* \"#utility.yul\":11745:11754   */\n      dup6\n        /* \"#utility.yul\":11741:11759   */\n      add\n        /* \"#utility.yul\":11728:11759   */\n      swap5\n      pop\n        /* \"#utility.yul\":11602:11606   */\n      0x20\n        /* \"#utility.yul\":11599:11600   */\n      dup2\n        /* \"#utility.yul\":11595:11607   */\n      add\n        /* \"#utility.yul\":11590:11607   */\n      swap1\n      pop\n        /* \"#utility.yul\":11565:11773   */\n      jump(tag_228)\n    tag_230:\n        /* \"#utility.yul\":11801:11807   */\n      dup7\n        /* \"#utility.yul\":11792:11799   */\n      dup4\n        /* \"#utility.yul\":11789:11808   */\n      lt\n        /* \"#utility.yul\":11786:11965   */\n      iszero\n      tag_231\n      jumpi\n        /* \"#utility.yul\":11859:11868   */\n      dup5\n        /* \"#utility.yul\":11854:11857   */\n      dup10\n        /* \"#utility.yul\":11850:11869   */\n      add\n        /* \"#utility.yul\":11844:11870   */\n      mload\n        /* \"#utility.yul\":11902:11950   */\n      tag_232\n        /* \"#utility.yul\":11944:11948   */\n      0x1f\n        /* \"#utility.yul\":11936:11942   */\n      dup10\n        /* \"#utility.yul\":11932:11949   */\n      and\n        /* \"#utility.yul\":11921:11930   */\n      dup3\n        /* \"#utility.yul\":11902:11950   */\n      tag_92\n      jump\t// in\n    tag_232:\n        /* \"#utility.yul\":11894:11900   */\n      dup4\n        /* \"#utility.yul\":11887:11951   */\n      sstore\n        /* \"#utility.yul\":11809:11965   */\n      pop\n        /* \"#utility.yul\":11786:11965   */\n    tag_231:\n        /* \"#utility.yul\":12011:12012   */\n      0x01\n        /* \"#utility.yul\":12007:12008   */\n      0x02\n        /* \"#utility.yul\":11999:12005   */\n      dup9\n        /* \"#utility.yul\":11995:12009   */\n      mul\n        /* \"#utility.yul\":11991:12013   */\n      add\n        /* \"#utility.yul\":11985:11989   */\n      dup9\n        /* \"#utility.yul\":11978:12014   */\n      sstore\n        /* \"#utility.yul\":11413:12024   */\n      pop\n      pop\n      pop\n        /* \"#utility.yul\":11376:12263   */\n    tag_223:\n      pop\n        /* \"#utility.yul\":10966:12269   */\n      pop\n      pop\n      pop\n        /* \"#utility.yul\":10874:12269   */\n      pop\n      pop\n      jump\t// out\n        /* \"#utility.yul\":12275:12423   */\n    tag_94:\n        /* \"#utility.yul\":12377:12388   */\n      0x00\n        /* \"#utility.yul\":12414:12417   */\n      dup2\n        /* \"#utility.yul\":12399:12417   */\n      swap1\n      pop\n        /* \"#utility.yul\":12275:12423   */\n      swap3\n      swap2\n      pop\n      pop\n      jump\t// out\n        /* \"#utility.yul\":12429:12819   */\n    tag_95:\n        /* \"#utility.yul\":12535:12538   */\n      0x00\n        /* \"#utility.yul\":12563:12602   */\n      tag_235\n        /* \"#utility.yul\":12596:12601   */\n      dup3\n        /* \"#utility.yul\":12563:12602   */\n      tag_75\n      jump\t// in\n    tag_235:\n        /* \"#utility.yul\":12618:12707   */\n      tag_236\n        /* \"#utility.yul\":12700:12706   */\n      dup2\n        /* \"#utility.yul\":12695:12698   */\n      dup6\n        /* \"#utility.yul\":12618:12707   */\n      tag_94\n      jump\t// in\n    tag_236:\n        /* \"#utility.yul\":12611:12707   */\n      swap4\n      pop\n        /* \"#utility.yul\":12716:12781   */\n      tag_237\n        /* \"#utility.yul\":12774:12780   */\n      dup2\n        /* \"#utility.yul\":12769:12772   */\n      dup6\n        /* \"#utility.yul\":12762:12766   */\n      0x20\n        /* \"#utility.yul\":12755:12760   */\n      dup7\n        /* \"#utility.yul\":12751:12767   */\n      add\n        /* \"#utility.yul\":12716:12781   */\n      tag_76\n      jump\t// in\n    tag_237:\n        /* \"#utility.yul\":12806:12812   */\n      dup1\n        /* \"#utility.yul\":12801:12804   */\n      dup5\n        /* \"#utility.yul\":12797:12813   */\n      add\n        /* \"#utility.yul\":12790:12813   */\n      swap2\n      pop\n        /* \"#utility.yul\":12539:12819   */\n      pop\n        /* \"#utility.yul\":12429:12819   */\n      swap3\n      swap2\n      pop\n      pop\n      jump\t// out\n        /* \"#utility.yul\":12825:13100   */\n    tag_44:\n        /* \"#utility.yul\":12957:12960   */\n      0x00\n        /* \"#utility.yul\":12979:13074   */\n      tag_239\n        /* \"#utility.yul\":13070:13073   */\n      dup3\n        /* \"#utility.yul\":13061:13067   */\n      dup5\n        /* \"#utility.yul\":12979:13074   */\n      tag_95\n      jump\t// in\n    tag_239:\n        /* \"#utility.yul\":12972:13074   */\n      swap2\n      pop\n        /* \"#utility.yul\":13091:13094   */\n      dup2\n        /* \"#utility.yul\":13084:13094   */\n      swap1\n      pop\n        /* \"#utility.yul\":12825:13100   */\n      swap3\n      swap2\n      pop\n      pop\n      jump\t// out\n\n    auxdata: 0xa2646970667358221220917d3b93999dc58fa8667255efdb98c831d53b9493e63c53ccafb6f5ab46879f64736f6c63430008180033\n}\n",
				"bytecode": {
					"linkReferences": {},
					"object": "608060405234801561000f575f80fd5b50610a228061001d5f395ff3fe608060405234801561000f575f80fd5b5060043610610064575f3560e01c80633df9b366146100a057806343ede4ae146100bc5780636057361d146100da5780638bab8dd5146100f65780639e7a13ad14610126578063b05784b81461015857610065565b5b6040517f08c379a000000000000000000000000000000000000000000000000000000000815260040161009790610389565b60405180910390fd5b6100ba60048036038101906100b59190610527565b610176565b005b6100c461020b565b6040516100d191906105a2565b60405180910390f35b6100f460048036038101906100ef91906105bb565b610210565b005b610110600480360381019061010b91906105e6565b610219565b60405161011d91906105a2565b60405180910390f35b610140600480360381019061013b91906105bb565b610246565b60405161014f93929190610697565b60405180910390f35b610160610301565b60405161016d91906105a2565b60405180910390f35b6001604051806060016040528085815260200184815260200183815250908060018154018082558091505060019003905f5260205f2090600302015f909190919091505f820151815f015560208201518160010190816101d691906108cd565b50604082015181600201555050826002836040516101f491906109d6565b908152602001604051809103902081905550505050565b5f5481565b805f8190555050565b6002818051602081018201805184825260208301602085012081835280955050505050505f915090505481565b60018181548110610255575f80fd5b905f5260205f2090600302015f91509050805f01549080600101805461027a90610700565b80601f01602080910402602001604051908101604052809291908181526020018280546102a690610700565b80156102f15780601f106102c8576101008083540402835291602001916102f1565b820191905f5260205f20905b8154815290600101906020018083116102d457829003601f168201915b5050505050908060020154905083565b5f8054905090565b5f82825260208201905092915050565b7f46616c6c6261636b2066756e6374696f6e2063616c6c65642e205468697320635f8201527f6f6e747261637420646f6573206e6f74206163636570742045746865722e0000602082015250565b5f610373603e83610309565b915061037e82610319565b604082019050919050565b5f6020820190508181035f8301526103a081610367565b9050919050565b5f604051905090565b5f80fd5b5f80fd5b5f819050919050565b6103ca816103b8565b81146103d4575f80fd5b50565b5f813590506103e5816103c1565b92915050565b5f80fd5b5f80fd5b5f601f19601f8301169050919050565b7f4e487b71000000000000000000000000000000000000000000000000000000005f52604160045260245ffd5b610439826103f3565b810181811067ffffffffffffffff8211171561045857610457610403565b5b80604052505050565b5f61046a6103a7565b90506104768282610430565b919050565b5f67ffffffffffffffff82111561049557610494610403565b5b61049e826103f3565b9050602081019050919050565b828183375f83830152505050565b5f6104cb6104c68461047b565b610461565b9050828152602081018484840111156104e7576104e66103ef565b5b6104f28482856104ab565b509392505050565b5f82601f83011261050e5761050d6103eb565b5b813561051e8482602086016104b9565b91505092915050565b5f805f6060848603121561053e5761053d6103b0565b5b5f61054b868287016103d7565b935050602084013567ffffffffffffffff81111561056c5761056b6103b4565b5b610578868287016104fa565b9250506040610589868287016103d7565b9150509250925092565b61059c816103b8565b82525050565b5f6020820190506105b55f830184610593565b92915050565b5f602082840312156105d0576105cf6103b0565b5b5f6105dd848285016103d7565b91505092915050565b5f602082840312156105fb576105fa6103b0565b5b5f82013567ffffffffffffffff811115610618576106176103b4565b5b610624848285016104fa565b91505092915050565b5f81519050919050565b5f5b83811015610654578082015181840152602081019050610639565b5f8484015250505050565b5f6106698261062d565b6106738185610309565b9350610683818560208601610637565b61068c816103f3565b840191505092915050565b5f6060820190506106aa5f830186610593565b81810360208301526106bc818561065f565b90506106cb6040830184610593565b949350505050565b7f4e487b71000000000000000000000000000000000000000000000000000000005f52602260045260245ffd5b5f600282049050600182168061071757607f821691505b60208210810361072a576107296106d3565b5b50919050565b5f819050815f5260205f209050919050565b5f6020601f8301049050919050565b5f82821b905092915050565b5f6008830261078c7fffffffffffffffffffffffffffffffffffffffffffffffffffffffffffffffff82610751565b6107968683610751565b95508019841693508086168417925050509392505050565b5f819050919050565b5f6107d16107cc6107c7846103b8565b6107ae565b6103b8565b9050919050565b5f819050919050565b6107ea836107b7565b6107fe6107f6826107d8565b84845461075d565b825550505050565b5f90565b610812610806565b61081d8184846107e1565b505050565b5b81811015610840576108355f8261080a565b600181019050610823565b5050565b601f8211156108855761085681610730565b61085f84610742565b8101602085101561086e578190505b61088261087a85610742565b830182610822565b50505b505050565b5f82821c905092915050565b5f6108a55f198460080261088a565b1980831691505092915050565b5f6108bd8383610896565b9150826002028217905092915050565b6108d68261062d565b67ffffffffffffffff8111156108ef576108ee610403565b5b6108f98254610700565b610904828285610844565b5f60209050601f831160018114610935575f8415610923578287015190505b61092d85826108b2565b865550610994565b601f19841661094386610730565b5f5b8281101561096a57848901518255600182019150602085019450602081019050610945565b868310156109875784890151610983601f891682610896565b8355505b6001600288020188555050505b505050505050565b5f81905092915050565b5f6109b08261062d565b6109ba818561099c565b93506109ca818560208601610637565b80840191505092915050565b5f6109e182846109a6565b91508190509291505056fea2646970667358221220917d3b93999dc58fa8667255efdb98c831d53b9493e63c53ccafb6f5ab46879f64736f6c63430008180033",
					"opcodes": "PUSH1 0x80 PUSH1 0x40 MSTORE CALLVALUE DUP1 ISZERO PUSH2 0xF JUMPI PUSH0 DUP1 REVERT JUMPDEST POP PUSH2 0xA22 DUP1 PUSH2 0x1D PUSH0 CODECOPY PUSH0 RETURN INVALID PUSH1 0x80 PUSH1 0x40 MSTORE CALLVALUE DUP1 ISZERO PUSH2 0xF JUMPI PUSH0 DUP1 REVERT JUMPDEST POP PUSH1 0x4 CALLDATASIZE LT PUSH2 0x64 JUMPI PUSH0 CALLDATALOAD PUSH1 0xE0 SHR DUP1 PUSH4 0x3DF9B366 EQ PUSH2 0xA0 JUMPI DUP1 PUSH4 0x43EDE4AE EQ PUSH2 0xBC JUMPI DUP1 PUSH4 0x6057361D EQ PUSH2 0xDA JUMPI DUP1 PUSH4 0x8BAB8DD5 EQ PUSH2 0xF6 JUMPI DUP1 PUSH4 0x9E7A13AD EQ PUSH2 0x126 JUMPI DUP1 PUSH4 0xB05784B8 EQ PUSH2 0x158 JUMPI PUSH2 0x65 JUMP JUMPDEST JUMPDEST PUSH1 0x40 MLOAD PUSH32 0x8C379A000000000000000000000000000000000000000000000000000000000 DUP2 MSTORE PUSH1 0x4 ADD PUSH2 0x97 SWAP1 PUSH2 0x389 JUMP JUMPDEST PUSH1 0x40 MLOAD DUP1 SWAP2 SUB SWAP1 REVERT JUMPDEST PUSH2 0xBA PUSH1 0x4 DUP1 CALLDATASIZE SUB DUP2 ADD SWAP1 PUSH2 0xB5 SWAP2 SWAP1 PUSH2 0x527 JUMP JUMPDEST PUSH2 0x176 JUMP JUMPDEST STOP JUMPDEST PUSH2 0xC4 PUSH2 0x20B JUMP JUMPDEST PUSH1 0x40 MLOAD PUSH2 0xD1 SWAP2 SWAP1 PUSH2 0x5A2 JUMP JUMPDEST PUSH1 0x40 MLOAD DUP1 SWAP2 SUB SWAP1 RETURN JUMPDEST PUSH2 0xF4 PUSH1 0x4 DUP1 CALLDATASIZE SUB DUP2 ADD SWAP1 PUSH2 0xEF SWAP2 SWAP1 PUSH2 0x5BB JUMP JUMPDEST PUSH2 0x210 JUMP JUMPDEST STOP JUMPDEST PUSH2 0x110 PUSH1 0x4 DUP1 CALLDATASIZE SUB DUP2 ADD SWAP1 PUSH2 0x10B SWAP2 SWAP1 PUSH2 0x5E6 JUMP JUMPDEST PUSH2 0x219 JUMP JUMPDEST PUSH1 0x40 MLOAD PUSH2 0x11D SWAP2 SWAP1 PUSH2 0x5A2 JUMP JUMPDEST PUSH1 0x40 MLOAD DUP1 SWAP2 SUB SWAP1 RETURN JUMPDEST PUSH2 0x140 PUSH1 0x4 DUP1 CALLDATASIZE SUB DUP2 ADD SWAP1 PUSH2 0x13B SWAP2 SWAP1 PUSH2 0x5BB JUMP JUMPDEST PUSH2 0x246 JUMP JUMPDEST PUSH1 0x40 MLOAD PUSH2 0x14F SWAP4 SWAP3 SWAP2 SWAP1 PUSH2 0x697 JUMP JUMPDEST PUSH1 0x40 MLOAD DUP1 SWAP2 SUB SWAP1 RETURN JUMPDEST PUSH2 0x160 PUSH2 0x301 JUMP JUMPDEST PUSH1 0x40 MLOAD PUSH2 0x16D SWAP2 SWAP1 PUSH2 0x5A2 JUMP JUMPDEST PUSH1 0x40 MLOAD DUP1 SWAP2 SUB SWAP1 RETURN JUMPDEST PUSH1 0x1 PUSH1 0x40 MLOAD DUP1 PUSH1 0x60 ADD PUSH1 0x40 MSTORE DUP1 DUP6 DUP2 MSTORE PUSH1 0x20 ADD DUP5 DUP2 MSTORE PUSH1 0x20 ADD DUP4 DUP2 MSTORE POP SWAP1 DUP1 PUSH1 0x1 DUP2 SLOAD ADD DUP1 DUP3 SSTORE DUP1 SWAP2 POP POP PUSH1 0x1 SWAP1 SUB SWAP1 PUSH0 MSTORE PUSH1 0x20 PUSH0 KECCAK256 SWAP1 PUSH1 0x3 MUL ADD PUSH0 SWAP1 SWAP2 SWAP1 SWAP2 SWAP1 SWAP2 POP PUSH0 DUP3 ADD MLOAD DUP2 PUSH0 ADD SSTORE PUSH1 0x20 DUP3 ADD MLOAD DUP2 PUSH1 0x1 ADD SWAP1 DUP2 PUSH2 0x1D6 SWAP2 SWAP1 PUSH2 0x8CD JUMP JUMPDEST POP PUSH1 0x40 DUP3 ADD MLOAD DUP2 PUSH1 0x2 ADD SSTORE POP POP DUP3 PUSH1 0x2 DUP4 PUSH1 0x40 MLOAD PUSH2 0x1F4 SWAP2 SWAP1 PUSH2 0x9D6 JUMP JUMPDEST SWAP1 DUP2 MSTORE PUSH1 0x20 ADD PUSH1 0x40 MLOAD DUP1 SWAP2 SUB SWAP1 KECCAK256 DUP2 SWAP1 SSTORE POP POP POP POP JUMP JUMPDEST PUSH0 SLOAD DUP2 JUMP JUMPDEST DUP1 PUSH0 DUP2 SWAP1 SSTORE POP POP JUMP JUMPDEST PUSH1 0x2 DUP2 DUP1 MLOAD PUSH1 0x20 DUP2 ADD DUP3 ADD DUP1 MLOAD DUP5 DUP3 MSTORE PUSH1 0x20 DUP4 ADD PUSH1 0x20 DUP6 ADD KECCAK256 DUP2 DUP4 MSTORE DUP1 SWAP6 POP POP POP POP POP POP PUSH0 SWAP2 POP SWAP1 POP SLOAD DUP2 JUMP JUMPDEST PUSH1 0x1 DUP2 DUP2 SLOAD DUP2 LT PUSH2 0x255 JUMPI PUSH0 DUP1 REVERT JUMPDEST SWAP1 PUSH0 MSTORE PUSH1 0x20 PUSH0 KECCAK256 SWAP1 PUSH1 0x3 MUL ADD PUSH0 SWAP2 POP SWAP1 POP DUP1 PUSH0 ADD SLOAD SWAP1 DUP1 PUSH1 0x1 ADD DUP1 SLOAD PUSH2 0x27A SWAP1 PUSH2 0x700 JUMP JUMPDEST DUP1 PUSH1 0x1F ADD PUSH1 0x20 DUP1 SWAP2 DIV MUL PUSH1 0x20 ADD PUSH1 0x40 MLOAD SWAP1 DUP2 ADD PUSH1 0x40 MSTORE DUP1 SWAP3 SWAP2 SWAP1 DUP2 DUP2 MSTORE PUSH1 0x20 ADD DUP3 DUP1 SLOAD PUSH2 0x2A6 SWAP1 PUSH2 0x700 JUMP JUMPDEST DUP1 ISZERO PUSH2 0x2F1 JUMPI DUP1 PUSH1 0x1F LT PUSH2 0x2C8 JUMPI PUSH2 0x100 DUP1 DUP4 SLOAD DIV MUL DUP4 MSTORE SWAP2 PUSH1 0x20 ADD SWAP2 PUSH2 0x2F1 JUMP JUMPDEST DUP3 ADD SWAP2 SWAP1 PUSH0 MSTORE PUSH1 0x20 PUSH0 KECCAK256 SWAP1 JUMPDEST DUP2 SLOAD DUP2 MSTORE SWAP1 PUSH1 0x1 ADD SWAP1 PUSH1 0x20 ADD DUP1 DUP4 GT PUSH2 0x2D4 JUMPI DUP3 SWAP1 SUB PUSH1 0x1F AND DUP3 ADD SWAP2 JUMPDEST POP POP POP POP POP SWAP1 DUP1 PUSH1 0x2 ADD SLOAD SWAP1 POP DUP4 JUMP JUMPDEST PUSH0 DUP1 SLOAD SWAP1 POP SWAP1 JUMP JUMPDEST PUSH0 DUP3 DUP3 MSTORE PUSH1 0x20 DUP3 ADD SWAP1 POP SWAP3 SWAP2 POP POP JUMP JUMPDEST PUSH32 0x46616C6C6261636B2066756E6374696F6E2063616C6C65642E20546869732063 PUSH0 DUP3 ADD MSTORE PUSH32 0x6F6E747261637420646F6573206E6F74206163636570742045746865722E0000 PUSH1 0x20 DUP3 ADD MSTORE POP JUMP JUMPDEST PUSH0 PUSH2 0x373 PUSH1 0x3E DUP4 PUSH2 0x309 JUMP JUMPDEST SWAP2 POP PUSH2 0x37E DUP3 PUSH2 0x319 JUMP JUMPDEST PUSH1 0x40 DUP3 ADD SWAP1 POP SWAP2 SWAP1 POP JUMP JUMPDEST PUSH0 PUSH1 0x20 DUP3 ADD SWAP1 POP DUP2 DUP2 SUB PUSH0 DUP4 ADD MSTORE PUSH2 0x3A0 DUP2 PUSH2 0x367 JUMP JUMPDEST SWAP1 POP SWAP2 SWAP1 POP JUMP JUMPDEST PUSH0 PUSH1 0x40 MLOAD SWAP1 POP SWAP1 JUMP JUMPDEST PUSH0 DUP1 REVERT JUMPDEST PUSH0 DUP1 REVERT JUMPDEST PUSH0 DUP2 SWAP1 POP SWAP2 SWAP1 POP JUMP JUMPDEST PUSH2 0x3CA DUP2 PUSH2 0x3B8 JUMP JUMPDEST DUP2 EQ PUSH2 0x3D4 JUMPI PUSH0 DUP1 REVERT JUMPDEST POP JUMP JUMPDEST PUSH0 DUP2 CALLDATALOAD SWAP1 POP PUSH2 0x3E5 DUP2 PUSH2 0x3C1 JUMP JUMPDEST SWAP3 SWAP2 POP POP JUMP JUMPDEST PUSH0 DUP1 REVERT JUMPDEST PUSH0 DUP1 REVERT JUMPDEST PUSH0 PUSH1 0x1F NOT PUSH1 0x1F DUP4 ADD AND SWAP1 POP SWAP2 SWAP1 POP JUMP JUMPDEST PUSH32 0x4E487B7100000000000000000000000000000000000000000000000000000000 PUSH0 MSTORE PUSH1 0x41 PUSH1 0x4 MSTORE PUSH1 0x24 PUSH0 REVERT JUMPDEST PUSH2 0x439 DUP3 PUSH2 0x3F3 JUMP JUMPDEST DUP2 ADD DUP2 DUP2 LT PUSH8 0xFFFFFFFFFFFFFFFF DUP3 GT OR ISZERO PUSH2 0x458 JUMPI PUSH2 0x457 PUSH2 0x403 JUMP JUMPDEST JUMPDEST DUP1 PUSH1 0x40 MSTORE POP POP POP JUMP JUMPDEST PUSH0 PUSH2 0x46A PUSH2 0x3A7 JUMP JUMPDEST SWAP1 POP PUSH2 0x476 DUP3 DUP3 PUSH2 0x430 JUMP JUMPDEST SWAP2 SWAP1 POP JUMP JUMPDEST PUSH0 PUSH8 0xFFFFFFFFFFFFFFFF DUP3 GT ISZERO PUSH2 0x495 JUMPI PUSH2 0x494 PUSH2 0x403 JUMP JUMPDEST JUMPDEST PUSH2 0x49E DUP3 PUSH2 0x3F3 JUMP JUMPDEST SWAP1 POP PUSH1 0x20 DUP2 ADD SWAP1 POP SWAP2 SWAP1 POP JUMP JUMPDEST DUP3 DUP2 DUP4 CALLDATACOPY PUSH0 DUP4 DUP4 ADD MSTORE POP POP POP JUMP JUMPDEST PUSH0 PUSH2 0x4CB PUSH2 0x4C6 DUP5 PUSH2 0x47B JUMP JUMPDEST PUSH2 0x461 JUMP JUMPDEST SWAP1 POP DUP3 DUP2 MSTORE PUSH1 0x20 DUP2 ADD DUP5 DUP5 DUP5 ADD GT ISZERO PUSH2 0x4E7 JUMPI PUSH2 0x4E6 PUSH2 0x3EF JUMP JUMPDEST JUMPDEST PUSH2 0x4F2 DUP5 DUP3 DUP6 PUSH2 0x4AB JUMP JUMPDEST POP SWAP4 SWAP3 POP POP POP JUMP JUMPDEST PUSH0 DUP3 PUSH1 0x1F DUP4 ADD SLT PUSH2 0x50E JUMPI PUSH2 0x50D PUSH2 0x3EB JUMP JUMPDEST JUMPDEST DUP2 CALLDATALOAD PUSH2 0x51E DUP5 DUP3 PUSH1 0x20 DUP7 ADD PUSH2 0x4B9 JUMP JUMPDEST SWAP2 POP POP SWAP3 SWAP2 POP POP JUMP JUMPDEST PUSH0 DUP1 PUSH0 PUSH1 0x60 DUP5 DUP7 SUB SLT ISZERO PUSH2 0x53E JUMPI PUSH2 0x53D PUSH2 0x3B0 JUMP JUMPDEST JUMPDEST PUSH0 PUSH2 0x54B DUP7 DUP3 DUP8 ADD PUSH2 0x3D7 JUMP JUMPDEST SWAP4 POP POP PUSH1 0x20 DUP5 ADD CALLDATALOAD PUSH8 0xFFFFFFFFFFFFFFFF DUP2 GT ISZERO PUSH2 0x56C JUMPI PUSH2 0x56B PUSH2 0x3B4 JUMP JUMPDEST JUMPDEST PUSH2 0x578 DUP7 DUP3 DUP8 ADD PUSH2 0x4FA JUMP JUMPDEST SWAP3 POP POP PUSH1 0x40 PUSH2 0x589 DUP7 DUP3 DUP8 ADD PUSH2 0x3D7 JUMP JUMPDEST SWAP2 POP POP SWAP3 POP SWAP3 POP SWAP3 JUMP JUMPDEST PUSH2 0x59C DUP2 PUSH2 0x3B8 JUMP JUMPDEST DUP3 MSTORE POP POP JUMP JUMPDEST PUSH0 PUSH1 0x20 DUP3 ADD SWAP1 POP PUSH2 0x5B5 PUSH0 DUP4 ADD DUP5 PUSH2 0x593 JUMP JUMPDEST SWAP3 SWAP2 POP POP JUMP JUMPDEST PUSH0 PUSH1 0x20 DUP3 DUP5 SUB SLT ISZERO PUSH2 0x5D0 JUMPI PUSH2 0x5CF PUSH2 0x3B0 JUMP JUMPDEST JUMPDEST PUSH0 PUSH2 0x5DD DUP5 DUP3 DUP6 ADD PUSH2 0x3D7 JUMP JUMPDEST SWAP2 POP POP SWAP3 SWAP2 POP POP JUMP JUMPDEST PUSH0 PUSH1 0x20 DUP3 DUP5 SUB SLT ISZERO PUSH2 0x5FB JUMPI PUSH2 0x5FA PUSH2 0x3B0 JUMP JUMPDEST JUMPDEST PUSH0 DUP3 ADD CALLDATALOAD PUSH8 0xFFFFFFFFFFFFFFFF DUP2 GT ISZERO PUSH2 0x618 JUMPI PUSH2 0x617 PUSH2 0x3B4 JUMP JUMPDEST JUMPDEST PUSH2 0x624 DUP5 DUP3 DUP6 ADD PUSH2 0x4FA JUMP JUMPDEST SWAP2 POP POP SWAP3 SWAP2 POP POP JUMP JUMPDEST PUSH0 DUP2 MLOAD SWAP1 POP SWAP2 SWAP1 POP JUMP JUMPDEST PUSH0 JUMPDEST DUP4 DUP2 LT ISZERO PUSH2 0x654 JUMPI DUP1 DUP3 ADD MLOAD DUP2 DUP5 ADD MSTORE PUSH1 0x20 DUP2 ADD SWAP1 POP PUSH2 0x639 JUMP JUMPDEST PUSH0 DUP5 DUP5 ADD MSTORE POP POP POP POP JUMP JUMPDEST PUSH0 PUSH2 0x669 DUP3 PUSH2 0x62D JUMP JUMPDEST PUSH2 0x673 DUP2 DUP6 PUSH2 0x309 JUMP JUMPDEST SWAP4 POP PUSH2 0x683 DUP2 DUP6 PUSH1 0x20 DUP7 ADD PUSH2 0x637 JUMP JUMPDEST PUSH2 0x68C DUP2 PUSH2 0x3F3 JUMP JUMPDEST DUP5 ADD SWAP2 POP POP SWAP3 SWAP2 POP POP JUMP JUMPDEST PUSH0 PUSH1 0x60 DUP3 ADD SWAP1 POP PUSH2 0x6AA PUSH0 DUP4 ADD DUP7 PUSH2 0x593 JUMP JUMPDEST DUP2 DUP2 SUB PUSH1 0x20 DUP4 ADD MSTORE PUSH2 0x6BC DUP2 DUP6 PUSH2 0x65F JUMP JUMPDEST SWAP1 POP PUSH2 0x6CB PUSH1 0x40 DUP4 ADD DUP5 PUSH2 0x593 JUMP JUMPDEST SWAP5 SWAP4 POP POP POP POP JUMP JUMPDEST PUSH32 0x4E487B7100000000000000000000000000000000000000000000000000000000 PUSH0 MSTORE PUSH1 0x22 PUSH1 0x4 MSTORE PUSH1 0x24 PUSH0 REVERT JUMPDEST PUSH0 PUSH1 0x2 DUP3 DIV SWAP1 POP PUSH1 0x1 DUP3 AND DUP1 PUSH2 0x717 JUMPI PUSH1 0x7F DUP3 AND SWAP2 POP JUMPDEST PUSH1 0x20 DUP3 LT DUP2 SUB PUSH2 0x72A JUMPI PUSH2 0x729 PUSH2 0x6D3 JUMP JUMPDEST JUMPDEST POP SWAP2 SWAP1 POP JUMP JUMPDEST PUSH0 DUP2 SWAP1 POP DUP2 PUSH0 MSTORE PUSH1 0x20 PUSH0 KECCAK256 SWAP1 POP SWAP2 SWAP1 POP JUMP JUMPDEST PUSH0 PUSH1 0x20 PUSH1 0x1F DUP4 ADD DIV SWAP1 POP SWAP2 SWAP1 POP JUMP JUMPDEST PUSH0 DUP3 DUP3 SHL SWAP1 POP SWAP3 SWAP2 POP POP JUMP JUMPDEST PUSH0 PUSH1 0x8 DUP4 MUL PUSH2 0x78C PUSH32 0xFFFFFFFFFFFFFFFFFFFFFFFFFFFFFFFFFFFFFFFFFFFFFFFFFFFFFFFFFFFFFFFF DUP3 PUSH2 0x751 JUMP JUMPDEST PUSH2 0x796 DUP7 DUP4 PUSH2 0x751 JUMP JUMPDEST SWAP6 POP DUP1 NOT DUP5 AND SWAP4 POP DUP1 DUP7 AND DUP5 OR SWAP3 POP POP POP SWAP4 SWAP3 POP POP POP JUMP JUMPDEST PUSH0 DUP2 SWAP1 POP SWAP2 SWAP1 POP JUMP JUMPDEST PUSH0 PUSH2 0x7D1 PUSH2 0x7CC PUSH2 0x7C7 DUP5 PUSH2 0x3B8 JUMP JUMPDEST PUSH2 0x7AE JUMP JUMPDEST PUSH2 0x3B8 JUMP JUMPDEST SWAP1 POP SWAP2 SWAP1 POP JUMP JUMPDEST PUSH0 DUP2 SWAP1 POP SWAP2 SWAP1 POP JUMP JUMPDEST PUSH2 0x7EA DUP4 PUSH2 0x7B7 JUMP JUMPDEST PUSH2 0x7FE PUSH2 0x7F6 DUP3 PUSH2 0x7D8 JUMP JUMPDEST DUP5 DUP5 SLOAD PUSH2 0x75D JUMP JUMPDEST DUP3 SSTORE POP POP POP POP JUMP JUMPDEST PUSH0 SWAP1 JUMP JUMPDEST PUSH2 0x812 PUSH2 0x806 JUMP JUMPDEST PUSH2 0x81D DUP2 DUP5 DUP5 PUSH2 0x7E1 JUMP JUMPDEST POP POP POP JUMP JUMPDEST JUMPDEST DUP2 DUP2 LT ISZERO PUSH2 0x840 JUMPI PUSH2 0x835 PUSH0 DUP3 PUSH2 0x80A JUMP JUMPDEST PUSH1 0x1 DUP2 ADD SWAP1 POP PUSH2 0x823 JUMP JUMPDEST POP POP JUMP JUMPDEST PUSH1 0x1F DUP3 GT ISZERO PUSH2 0x885 JUMPI PUSH2 0x856 DUP2 PUSH2 0x730 JUMP JUMPDEST PUSH2 0x85F DUP5 PUSH2 0x742 JUMP JUMPDEST DUP2 ADD PUSH1 0x20 DUP6 LT ISZERO PUSH2 0x86E JUMPI DUP2 SWAP1 POP JUMPDEST PUSH2 0x882 PUSH2 0x87A DUP6 PUSH2 0x742 JUMP JUMPDEST DUP4 ADD DUP3 PUSH2 0x822 JUMP JUMPDEST POP POP JUMPDEST POP POP POP JUMP JUMPDEST PUSH0 DUP3 DUP3 SHR SWAP1 POP SWAP3 SWAP2 POP POP JUMP JUMPDEST PUSH0 PUSH2 0x8A5 PUSH0 NOT DUP5 PUSH1 0x8 MUL PUSH2 0x88A JUMP JUMPDEST NOT DUP1 DUP4 AND SWAP2 POP POP SWAP3 SWAP2 POP POP JUMP JUMPDEST PUSH0 PUSH2 0x8BD DUP4 DUP4 PUSH2 0x896 JUMP JUMPDEST SWAP2 POP DUP3 PUSH1 0x2 MUL DUP3 OR SWAP1 POP SWAP3 SWAP2 POP POP JUMP JUMPDEST PUSH2 0x8D6 DUP3 PUSH2 0x62D JUMP JUMPDEST PUSH8 0xFFFFFFFFFFFFFFFF DUP2 GT ISZERO PUSH2 0x8EF JUMPI PUSH2 0x8EE PUSH2 0x403 JUMP JUMPDEST JUMPDEST PUSH2 0x8F9 DUP3 SLOAD PUSH2 0x700 JUMP JUMPDEST PUSH2 0x904 DUP3 DUP3 DUP6 PUSH2 0x844 JUMP JUMPDEST PUSH0 PUSH1 0x20 SWAP1 POP PUSH1 0x1F DUP4 GT PUSH1 0x1 DUP2 EQ PUSH2 0x935 JUMPI PUSH0 DUP5 ISZERO PUSH2 0x923 JUMPI DUP3 DUP8 ADD MLOAD SWAP1 POP JUMPDEST PUSH2 0x92D DUP6 DUP3 PUSH2 0x8B2 JUMP JUMPDEST DUP7 SSTORE POP PUSH2 0x994 JUMP JUMPDEST PUSH1 0x1F NOT DUP5 AND PUSH2 0x943 DUP7 PUSH2 0x730 JUMP JUMPDEST PUSH0 JUMPDEST DUP3 DUP2 LT ISZERO PUSH2 0x96A JUMPI DUP5 DUP10 ADD MLOAD DUP3 SSTORE PUSH1 0x1 DUP3 ADD SWAP2 POP PUSH1 0x20 DUP6 ADD SWAP5 POP PUSH1 0x20 DUP2 ADD SWAP1 POP PUSH2 0x945 JUMP JUMPDEST DUP7 DUP4 LT ISZERO PUSH2 0x987 JUMPI DUP5 DUP10 ADD MLOAD PUSH2 0x983 PUSH1 0x1F DUP10 AND DUP3 PUSH2 0x896 JUMP JUMPDEST DUP4 SSTORE POP JUMPDEST PUSH1 0x1 PUSH1 0x2 DUP9 MUL ADD DUP9 SSTORE POP POP POP JUMPDEST POP POP POP POP POP POP JUMP JUMPDEST PUSH0 DUP2 SWAP1 POP SWAP3 SWAP2 POP POP JUMP JUMPDEST PUSH0 PUSH2 0x9B0 DUP3 PUSH2 0x62D JUMP JUMPDEST PUSH2 0x9BA DUP2 DUP6 PUSH2 0x99C JUMP JUMPDEST SWAP4 POP PUSH2 0x9CA DUP2 DUP6 PUSH1 0x20 DUP7 ADD PUSH2 0x637 JUMP JUMPDEST DUP1 DUP5 ADD SWAP2 POP POP SWAP3 SWAP2 POP POP JUMP JUMPDEST PUSH0 PUSH2 0x9E1 DUP3 DUP5 PUSH2 0x9A6 JUMP JUMPDEST SWAP2 POP DUP2 SWAP1 POP SWAP3 SWAP2 POP POP JUMP INVALID LOG2 PUSH5 0x6970667358 0x22 SLT KECCAK256 SWAP2 PUSH30 0x3B93999DC58FA8667255EFDB98C831D53B9493E63C53CCAFB6F5AB46879F PUSH5 0x736F6C6343 STOP ADDMOD XOR STOP CALLER "
				},
				"gasEstimates": {
					"creation": {
						"codeDepositCost": "518800",
						"executionCost": "554",
						"totalCost": "519354"
					},
					"external": {
						"": "530",
						"addPerson(uint256,string,uint256)": "infinite",
						"favouriteNumber()": "2424",
						"nameToFavoriteNumber(string)": "infinite",
						"people(uint256)": "infinite",
						"retreive()": "2520",
						"store(uint256)": "22536"
					}
				},
				"methodIdentifiers": {
					"addPerson(uint256,string,uint256)": "3df9b366",
					"favouriteNumber()": "43ede4ae",
					"nameToFavoriteNumber(string)": "8bab8dd5",
					"people(uint256)": "9e7a13ad",
					"retreive()": "b05784b8",
					"store(uint256)": "6057361d"
				}
			},
			"storageLayout": {
				"storage": [
					{
						"astId": 3,
						"contract": "contracts/SimpleStorage.sol:SimpleStorage",
						"label": "favouriteNumber",
						"offset": 0,
						"slot": "0",
						"type": "t_uint256"
					},
					{
						"astId": 14,
						"contract": "contracts/SimpleStorage.sol:SimpleStorage",
						"label": "people",
						"offset": 0,
						"slot": "1",
						"type": "t_array(t_struct(People)10_storage)dyn_storage"
					},
					{
						"astId": 18,
						"contract": "contracts/SimpleStorage.sol:SimpleStorage",
						"label": "nameToFavoriteNumber",
						"offset": 0,
						"slot": "2",
						"type": "t_mapping(t_string_memory_ptr,t_uint256)"
					}
				],
				"types": {
					"t_array(t_struct(People)10_storage)dyn_storage": {
						"base": "t_struct(People)10_storage",
						"encoding": "dynamic_array",
						"label": "struct SimpleStorage.People[]",
						"numberOfBytes": "32"
					},
					"t_mapping(t_string_memory_ptr,t_uint256)": {
						"encoding": "mapping",
						"key": "t_string_memory_ptr",
						"label": "mapping(string => uint256)",
						"numberOfBytes": "32",
						"value": "t_uint256"
					},
					"t_string_memory_ptr": {
						"encoding": "bytes",
						"label": "string",
						"numberOfBytes": "32"
					},
					"t_string_storage": {
						"encoding": "bytes",
						"label": "string",
						"numberOfBytes": "32"
					},
					"t_struct(People)10_storage": {
						"encoding": "inplace",
						"label": "struct SimpleStorage.People",
						"members": [
							{
								"astId": 5,
								"contract": "contracts/SimpleStorage.sol:SimpleStorage",
								"label": "favoriteNumber",
								"offset": 0,
								"slot": "0",
								"type": "t_uint256"
							},
							{
								"astId": 7,
								"contract": "contracts/SimpleStorage.sol:SimpleStorage",
								"label": "name",
								"offset": 0,
								"slot": "1",
								"type": "t_string_storage"
							},
							{
								"astId": 9,
								"contract": "contracts/SimpleStorage.sol:SimpleStorage",
								"label": "age",
								"offset": 0,
								"slot": "2",
								"type": "t_uint256"
							}
						],
						"numberOfBytes": "96"
					},
					"t_uint256": {
						"encoding": "inplace",
						"label": "uint256",
						"numberOfBytes": "32"
					}
				}
			},
			"userdoc": {
				"kind": "user",
				"methods": {},
				"version": 1
			}
		}
	}
}